:100000000C946D060C94B4060C94B4060C941D323A
:100010000C94B4060C94B4060C94B4060C94B40678
:100020000C94B4060C94B4060C94761B0C94321BFE
:100030000C9407290C94B4060C94B4060C94B406E2
:100040000C94B4060C94B4060C94B4060C94B40648
:100050000C94B4060C944E1C0C94B4060C94B40688
:100060000C94B4060C94B4060C94B4060C94B40628
:100070000C94B4060C94B4060C94B4060C94B40618
:100080000C94B4060C94B4060C94B4060C94B40608
:100090000C94B4060C94B4060C94B4060C94B406F8
:1000A0000C94B4060C94B4060C94B40605010980B3
:1000B000A101850319012AB700150126B700950192
:1000C00075108100C0050C0901A101850419012AE0
:1000D000A002150126A002950175108100C00660DE
:1000E000FF0961A1010962150026FF00952075082E
:1000F00081020963150026FF00952075089102C052
:1001000005010906A101050719E029E715002501E8
:10011000950875018102950175088101050719008F
:1001200029FF150026FF00950675088100050819AE
:10013000012905950575019102950175039101C08D
:100140000005010502050305040505050006010675
:100150000206030604060506000701070207030757
:100160000407050700080108020803080408050839
:100170000009010902090309040905090000010039
:100180000200030004000500000101010201030157
:100190000401050100020102020203020402050239
:1001A0000003010302030303040305030004010425
:1001B0000204030404040504000000000000000021
:1001C000000000000000000000000000000000002F
:1001D0000000000000000000000000007E0F00D4BE
:1001E000FFFFFFC7000000780000000000000000D3
:1001F0002A2B280000000000000000000000000082
:1002000000000029000000002C1E3420212224348C
:100210002627252E362D3738271E1F20212223245E
:1002200025263333362E37381F0405060708090AFA
:100230000B0C0D0E0F101112131415161718191A96
:100240001B1C1D2F3130232D350405060708090A14
:100250000B0C0D0E0F101112131415161718191A76
:100260001B1C1D2F3130354C00DA0281FFD9F1DB28
:1002700020A4A62EAF00A0C000A1C800AED580A8C3
:100280001FD300408D14200000047F3F1F643214F0
:10029000643214783C1E1E140A054350534C4B0024
:1002A0000A0A00556E646566004C6F7765720052ED
:1002B0006169736500426173650A004C415945529A
:1002C000000A0A004D6F640A00436C6D6B005177A1
:1002D0007274000A0A0080818283848586878889F7
:1002E0008A8B8C8D8E8F9091929394A0A1A2A3A4BF
:1002F000A5A6A7A8A9AAABACADAEAFB0B1B2B3B436
:10030000C0C1C2C3C4C5C6C7C8C9CACBCCCDCECF75
:10031000D0D1D2D3D40000010101010101010101BA
:1003200002020202020202020203030303030303A6
:100330000304040404040404050505050506060673
:100340000606070707070708080808090909090A30
:100350000A0A0B0B0B0C0C0C0D0D0D0E0E0E0F0FD5
:100360000F10101111111212131314141515161663
:100370001717181819191A1A1B1B1C1D1D1E1E1FD2
:100380002020212222232424252626272829292A21
:100390002B2C2D2D2E2F3031323233343536373849
:1003A000393A3B3C3D3E3F40414243444546474845
:1003B000494A4C4D4E4F50515354555658595A5B1B
:1003C0005D5E5F616264656668696B6C6D6F7072BB
:1003D000737577787A7B7D7E8082838587888A8C27
:1003E0008E8F91939596989A9C9EA0A2A3A5A7A95B
:1003F000ABADAFB1B3B5B7BABCBEC0C2C4C6C9CB52
:10040000CDCFD1D4D6D8DBDDDFE2E4E7E9EBEEF007
:10041000F3F5F8FAFDFFFFAA7F5540222325262891
:10042000292A2C2D2F3032333536383A3B3D3E4089
:1004300042434547494A4C4E5051535557595A5CCF
:100440005E6062646668696B6D6F71737577797BE6
:100450007D7F81838587898A8C8E90929496989AE5
:100460009C9E9FA1A3A5A7A8AAACAEAFB1B3B4B6FA
:10047000B8B9BBBCBEBFC1C2C3C5C6C7C9CACBCC55
:10048000CDCED0D1D2D2D3D4D5D6D7D7D8D9D9DA28
:10049000DADBDBDBDCDCDCDCDCDDDDDDDDDCDCDC9D
:1004A000DCDCDBDBDBDADAD9D9D8D7D7D6D5D4D3C5
:1004B000D2D2D1D0CECDCCCBCAC9C7C6C5C3C2C19A
:1004C000BFBEBCBBB9B8B6B4B3B1AFAEACAAA8A7F7
:1004D000A5A3A19F9E9C9A98969492908E8C8A89AF
:1004E000878583817F7D7B79777573716F6D6B698C
:1004F00068666462605E5C5A5957555351504E4C61
:100500004A4947454342403E3D3B3A38363533320F
:10051000302F2D2C2A29282625232207087F08077B
:10052000003E5B4F5B3E003E6B4F6B3E001C3E7CD3
:100530003E1C00183C7E3C18001C577D571C001CBC
:100540005E7F5E1C0000183C180000FFE7C3E7FF59
:1005500000001824180000FFE7DBE7FF0030483AEE
:10056000060E00262979292600407F050507004050
:100570007F05253F005A3CE73C5A007F3E1C1C0883
:1005800000081C1C3E7F0014227F2214005F5F00C5
:100590005F5F0006097F017F00006689956A006041
:1005A000606060600094A2FFA2940008047E0408CA
:1005B0000010207E20100008082A1C0800081C2AB1
:1005C0000808001E10101010000C1E0C1E0C00302D
:1005D000383E383000060E3E0E06000000000000D7
:1005E0000000005F000000000700070000147F14F7
:1005F0007F1400242A7F2A12002313086462003625
:100600004956205000000807030000001C2241004A
:10061000000041221C00002A1C7F1C2A0008083E02
:100620000808000080703000000808080808000072
:1006300000606000002010080402003E5149453E61
:100640000000427F4000007249494946002141496B
:100650004D33001814127F10002745454539003CE2
:100660004A494931004121110907003649494936B3
:1006700000464949291E00000014000000004034D3
:100680000000000008142241001414141414000087
:1006900041221408000201590906003E415D594EED
:1006A000007C1211127C007F49494936003E4141CD
:1006B0004122007F4141413E007F49494941007F3D
:1006C00009090901003E41415173007F0808087F74
:1006D0000000417F4100002040413F01007F08149D
:1006E0002241007F40404040007F021C027F007F8B
:1006F0000408107F003E4141413E007F0909090680
:10070000003E4151215E007F0919294600264949D2
:1007100049320003017F0103003F4040403F001F7A
:100720002040201F003F4038403F006314081463FE
:10073000000304780403006159494D4300007F41E0
:10074000414100020408102000004141417F0004A3
:10075000020102040040404040400000030708003E
:10076000002054547840007F2844443800384444E2
:10077000442800384444287F00385454541800005A
:10078000087E09020018A4A49C78007F080404785D
:100790000000447D4000002040403D00007F1028C4
:1007A00044000000417F4000007C04780478007C15
:1007B0000804047800384444443800FC1824241801
:1007C0000018242418FC007C080404080048545431
:1007D00054240004043F4424003C4040207C001C7E
:1007E0002040201C003C4030403C0044281028445D
:1007F000004C9090907C004464544C4400000836B7
:1008000041000000007700000000413608000002AF
:1008100001020402003C2623263C000000000000E8
:1008200000404040F0F8F8FF38FFF8F83FF8F8FFD4
:1008300038FFF8F8F040404000000000000080C0A1
:10084000C0C0800000C0C08000000080C0C000C0E8
:10085000C0000080C0C00000000000C0C0C0C0C018
:1008600000C0C00000000000000000000000000008
:100870000000000000000000000000000000000078
:100880000000000000000000000000000000000068
:1008900000000000000000000000C0F0F8FC3E1E58
:1008A00006010000007F4141417F007F4141417FBF
:1008B000000080C0E07E5B4F5BFEC00000C000DC3B
:1008C000D7DEDEDED7DC00C0000000000000000044
:1008D0000000000000000000000000000000000018
:1008E00000494949FFFFFFFFE0DFBFBF00BFBFDF97
:1008F000E0FFFFFFFF49494900000000001F3F6083
:1009000060E0BF1F007F7F071E381E077F7F007FCC
:100910007F0E1F3B716000000000007F7F0C0C0CFD
:10092000007E7E007F7E0303007F7E03037E7E03C6
:10093000037F7E000F3E703C063C703E0F00327B12
:1009400049493F7E007F7E0303001E3F69696F2691
:1009500000000000000000000000030F1F3F3C7873
:1009600070600000007F4141417F007F4141417F35
:1009700000307B7F7830202030787F3B0003000FF1
:100980007F0F0F0F7F0F000300000000000000002A
:100990000000000000000000000000000000000057
:1009A00000010101070F0F7F0F7F0F0F7E0F0F7FD9
:1009B0000F7F0F0F07010101000000000000000081
:1009C0000000010100000000000000000000000025
:1009D0000000000000000000000000000000000017
:1009E0000000000000000000000000000000000007
:1009F00000000000000000000000000000000000F7
:100A000000000000000000000000000000000000E6
:100A100000000000000000000000000000000000D6
:100A200000000000000000000000000000000000C6
:100A300000000000000000000000000000000000B6
:100A400000000000000000000000000000000000A6
:100A5000000000000000000000000000AF00AE3504
:100A6000001E001F00200021002200290014001A8F
:100A7000000800150017002B0004001600070009ED
:100A8000000A00E1001D001B00060019000500E33C
:100A900000E200E00002512800A8003500270026EF
:100AA000002500240023002A00130012000C001867
:100AB000001C00340033000F000E000D000B00E599
:100AC0000038003700360010001100E700E600E4AF
:100AD0000003512C00000035001E001F00200021E3
:100AE000002200290014001A00090013000A002B3C
:100AF0000004001500160017000700E1001D001B90
:100B000000060019000500E300E200E000010028F3
:100B100000A8003500270026002500240023002A15
:100B20000033001C0018000F000D00340012000CF0
:100B300000080011000B00E50038003700360010F7
:100B4000000E00E700E600E40001002C00000001B8
:100B5000003A003B003C003D003E0035001E001FF7
:100B60000020002100220001001E021F022002219D
:100B700002220201002E002D002E022F023002015F
:100B80000001000100010001000100440043004297
:100B900000410040003F00450027002600250024BA
:100BA000002300310227022602250224022302012B
:100BB0000031003302330030002F0001000100013A
:100BC000000100010001000100010001000100011D
:100BD000000100010049004600650000000000011E
:100BE00000E200E000E1000000390001007A007B33
:100BF000007C007D000000010001000100010001F7
:100C00000001000100010001000100010001002AB3
:100C10000001000100520001004B002A004C004F6F
:100C200000510050004E00010000000100000001D2
:100C300000000001000100010001000100010009A5
:100C4000025B00030100A0FA090400000103010196
:100C5000000921110100012240000705810308005D
:100C60000A0904010002030000000921110100012A
:100C7000222200070582032000010705030320004C
:100C80000109040200010300000009211101000113
:100C90002232000705840320000A1201000200002E
:100CA000000832FC87020100010200010C0353001E
:100CB0006F0066006C00650000001A034A006F00B8
:100CC0007300650066004100640061006D00630010
:100CD00069006B0000000403090411241FBECFEF5C
:100CE000DAE0DEBFCDBF04B603FE27C080910D065B
:100CF00090910E06A0910F06B09110068730904B90
:100D0000A740B04BD1F410920D0610920E0610922F
:100D10000F061092100614BE84B7877F84BF0FB6EB
:100D2000F894A8958091600088618093600010928B
:100D300060000FBEE0E0F8E3099511E0A0E0B1E04B
:100D4000ECE1FAE602C005900D92A63FB107D9F793
:100D500026E0A6EFB1E001C01D92AD30B207E1F789
:100D60000E942E290C94AE340C940000E8EDF0E0C3
:100D700080818E7F80831092E2001092DA001092C0
:100D8000E100A0EEB0E08C9181608C9380818F7740
:100D9000808319BCA7EDB0E08C918E7F8C9380810D
:100DA0008F7E80831092F20508952091E4003091A7
:100DB000E50095E6A9012091EC00822F817020FFCB
:100DC00006C08091E80080FF06C080E00895209171
:100DD000E80022FD1AC08091FF05882389F0853044
:100DE00089F08091EB0085FD0FC02091E4003091E7
:100DF000E50042175307F9F29150E1F684E00895B7
:100E000082E0089583E0089581E00895EF92FF92D3
:100E10000F931F93CF937C018B010E94D506C82F9F
:100E2000811117C08091E80085FD0BC08091E8001A
:100E30008E778093E8000E94D506882399F3C82F07
:100E400008C0F70181917F018093F10001501109E1
:100E500049F78C2FCF911F910F91FF90EF9008953C
:100E60008091010687FF13C08091E80082FF06C0D1
:100E70008091E8008B778093E80004C08091FF05A3
:100E80008111F2CF08958091FF058823D9F38091D5
:100E9000E80080FFF8CF8091E8008E77ECCF982FA4
:100EA0009093E900242F762F50E0891731F070914C
:100EB000EC002091ED005091F00021FD07C09F5FF4
:100EC000973071F78093E90081E008953091EB004D
:100ED0003E7F3093EB003091ED003D7F3093ED008D
:100EE0003091EB0031603093EB007093EC00209375
:100EF000ED005093F0002091EE0027FDE0CF80E060
:100F00000895CF92DF92EF92FF920F931F93CF93AA
:100F1000DF93C8EDD0E088818F7E8883E7EDF0E035
:100F200080818160808384E082BF81E08093F205CC
:100F300088818E7F888302EE10E0F8011082109283
:100F4000DA0081EEC82ED12CF601108288818F77CD
:100F5000888388818068888388818F7D888319BC95
:100F60001092FF05109200061092FE051092FD05EA
:100F700090EEE92EF12CF70180818B7F80838881B0
:100F80008160888342E060E080E00E944F07F601C4
:100F900080818E7F8083F801808181608083808161
:100FA00088608083F70180818E7F80838881806163
:100FB0008883DF91CF911F910F91FF90EF90DF9089
:100FC000CF900895FC01CB012091070630910806CF
:100FD0002617370790F0009729F42091E8002E7724
:100FE0002093E80040E0009751F4411108C080913F
:100FF000E80082FF31C080E00895C901F3CF20915D
:10100000FF052223A9F12530A9F12091E80023FD55
:101010002DC02091E80022FDEACF2091E80020FFBA
:10102000E2CF3091F3002091F200009719F02830C0
:10103000310558F041E02830310509F040E02091B9
:10104000E8002E772093E800CECF41914093F10045
:1010500001972F5F3F4FE9CF8091FF05882341F033
:10106000853041F08091E80083FFC1CF81E0089591
:1010700082E0089583E00895089508950895809189
:10108000F405089587E797E7909301088093000897
:1010900088E19AE00FB6F894A895809360000FBE9F
:1010A00090936000FFCFCF93DF9300D000D0CDB7F7
:1010B000DEB78FB7F8942091EB053091EC054091A5
:1010C000ED055091EE0529833A834B835C838FBFF6
:1010D00069817A818B819C810F900F900F900F9086
:1010E000DF91CF9108959C01FC0132968FEF90E043
:1010F0004191461751F08F3F19F4411101C0892FDA
:101100009F5F9630A9F78F3F09F40895280F311D8E
:1011100087FD3A95F901628308952091E8053091A1
:10112000E9052817390771F09093E9058093E805E0
:10113000E091E605F091E705309721F00084F18514
:10114000E02D099408952091E4053091E5052817D4
:10115000390771F09093E5058093E405E091E60589
:10116000F091E705309721F00680F781E02D099492
:101170000895FC01680F791F8FEF91E32191822779
:1011800028E030E087FF09C0880F89272150310906
:10119000C9F7E617F70791F70895880FF7CFFA0117
:1011A00081110994FB01FDCFE6EFF2E0118282810B
:1011B0008460828308958091CE03982F9E7F61F48E
:1011C000817082608093CE038091D103893718F0BB
:1011D00088E78093D10308958A34B0F381708864DE
:1011E000F1CF8F929F92AF92BF92CF92DF92EF9208
:1011F000FF920F931F93CF93DF93D82EC62EE90152
:10120000E42FF0E0EA5EFC4F611113C04491942F8B
:10121000E42FE98348839A83DF91CF911F910F9147
:10122000FF90EF90DF90CF90BF90AF909F908F9006
:101230000895062F10E0E49186E0D89E70011124F5
:101240002FEF30E0C701B9010E9498338D2D90E057
:10125000880F991FF5E5F69FA001F79F500D112407
:10126000841B950B982F990F890FA901401B510BD7
:10127000E49FD001E59FB00D11244B2FC89E600163
:101280001124CD2CDD245901AC18BD08EA9D600164
:10129000EB9DD00C11249D2D4901881A9108809E48
:1012A0005001819EB00C909EB00C1124AB2CBB243D
:1012B0002A193B09E29F8001E39F100D112463303E
:1012C0007105D1F08CEFE81683E0F80670F4613018
:1012D0007105B1F062307105B9F08FEFE816F104D5
:1012E00008F097CF9B2F412F94CF6430710579F090
:1012F00066307105B9F38DCF4D2D9E2FEB2F89CF21
:101300004E2FED2D9B2F85CF912F4E2FF7CF9E2F58
:10131000E12F7FCF80E0089578940895F894E82F26
:10132000E295EF70F0E041A18F7021E030E0B9016B
:1013300002C0660F771F8A95E2F7CB01962F909532
:10134000942391A392A1892B82A30C948C09909150
:101350009E0292FF06C0282F28712830F9F4877F5B
:10136000846093FF06C0282F28712831F1F4877E0E
:10137000846120919F0220FF06C0382F38713830D9
:10138000D9F4877F816021FF06C0282F287128317A
:10139000D1F4877E816194FD877E0895282F247182
:1013A0002430F9F68B7F8860DCCF282F247124311C
:1013B00001F78B7E8861DDCF382F3171313019F71D
:1013C0008E7F8860E0CF282F2171213121F78E7E1A
:1013D0008861E1CFCF93DF93EC01803E910509F462
:1013E00060C050F58133910509F4A6C090F48932AC
:1013F000910509F49AC08A9709F4A5C0C130D105B6
:1014000009F462C0CE010497813A910508F055C0F5
:101410005BC089339105F1F182389105D9F1C59707
:1014200009F47CC0C83AD10508F094C0C53AD1058A
:1014300028F3A497D06448C0843E910509F453C0B2
:1014400068F4823E9105E1F1833E910509F440C0C4
:10145000CE01805E9109089780F536C0863E9105E1
:1014600009F44CC0873E910509F44DC0811523E570
:10147000920708F095C0811532E5930708F005C181
:10148000811540E2940708F074C08F3F910551F236
:1014900048F21AC080919E028370B1F0C0EED0E095
:1014A00013C080919E0280FD16C190919F0290FF13
:1014B0000BC0C3EED0E084FF07C0D0E0C0E004C0A2
:1014C00080919E0282FDF5CFCE01DF91CF910895EC
:1014D00080919E0282FD02C190919F0290FDDECF1D
:1014E00084FFF2CFEACF80919F0281FFEDCF809100
:1014F0009E02C7EED0E084FDE0CFE6CF80919E0251
:1015000083FDF7CFE1CF80919E0283FDEAC09091E9
:101510009F0291FFE5CFC4EED0E0D6CF80919E022E
:1015200085FFD2CFC9E2D0E0CFCF80919E0285FF68
:10153000CBCFC5E3D0E0C8CF80919E0286FFC4CF59
:10154000CAE2D0E0C1CF80919E0286FFBDCFC1E349
:10155000D0E0BACFCF3BD10508F07ACFC85AD0E05F
:10156000CC0FDD1FC659DE4F0990D881C02DD46441
:10157000ABCFC11581E5D80770F4C11590E5D90747
:1015800008F066C0CE0190548115904108F095CFC7
:10159000DF70D06A99CFDC2FCC27C16FD06A94CF8F
:1015A000811537E5930760F58115964508F090C0E1
:1015B000C11585E5D807C8F4C11594E5D90708F029
:1015C00074C0CE018370992721E030E002C0220F61
:1015D000331F8A95E2F7C695C69540E2C49FE001A5
:1015E0001124C22BD32BDA686FCF8C2F0E94A7094E
:1015F000C82FD0E0DC2FCC27CC27DF71D06264CF9E
:10160000C1158AE5D80788F4C11599E5D90708F00E
:1016100051C0CE0198558F3F910511F008F04DCF84
:10162000DC2FCC27C06FD06A4FCFCE0190568115EA
:10163000904208F042CF8D2F8F710E94A70990E051
:10164000982F882788279F719C012C2BE901D6CFE2
:10165000CE0164E0969587956A95E1F783702C2F0B
:1016600026952695237040E2249F90011124382B63
:101670008C2F8370C1E0D0E002C0CC0FDD1F8A95B3
:10168000E2F7C22BD32BDC681FCF8370992721E0B0
:1016900030E002C0220F331F8A95E2F7C695C69547
:1016A00080E2C89FE0011124ECCFDC2FCC27C46F6F
:1016B000D06A0ACF8C2F8F700E94A70934E0D6958C
:1016C000C7953A95E1F7CF70DC2FC82FD069FCCED3
:1016D000DD27D066F9CEC9E3D0E0F6CEC2EED0E089
:1016E000F3CEC6EED0E0F0CE0C94530880916302A6
:1016F0008111109263020895982F90958091620253
:101700008923809362020895809162029091610220
:10171000892B90916002892B8093F801909163024C
:10172000992391F0892B8093F80120E08AEF91E0D2
:10173000FC013081019631112F5F32E08030930738
:10174000B9F721110E94760BE091E605F091E705CB
:10175000309731F00280F381E02D88EF91E0099419
:10176000089580915E0290912D02981301C0089512
:101770008F5F8770FACF292F220FE22FE90FEE0F2C
:10178000E80F9E2F9770E695E695E69583E0E89F33
:10179000F0011124E35FFD4F50E040E080E0219133
:1017A00030E0092E02C0369527950A94E2F72170A1
:1017B0003327042E01C0220F0A94EAF7822B4F5FD1
:1017C0005F4F4330510559F70895292F220FE22F1B
:1017D000E90FEE0FE80F8E2F877041E001C0440F34
:1017E0008A95EAF7E695E695E69583E0E89FF001AD
:1017F0001124E35FFD4F30E020E070E05191DF0104
:101800001197CB01022E02C0969587950A94E2F7B4
:10181000817081958527842385278C932F5F3F4F87
:101820002330310559F7089590E080E00E94A30825
:1018300090E080E00E948D08109261021092600298
:101840000C94840B80930C060C94140C80910C0661
:10185000982F9670963019F488600C94220C877F2C
:10186000FCCF21E030E001C0220F8A95EAF72095F5
:1018700080910C0682230C94220C90915F0280953B
:10188000892380935F02282F277091F4282F082E38
:10189000000C330B9217130659F090919F0292FDA2
:1018A00007C08595859585950E94310C10925F0241
:1018B000089521E030E001C0220F8A95EAF7809177
:1018C0000C06822B0C94220C809364020C94140C52
:1018D000882321F00E947C0B0C94840B08958823AC
:1018E00039F090916202892B809362020C94840BF0
:1018F0000895882381F19CEF980F913A78F4EAEFEC
:10190000F1E020E032E09191891303C0DF011197EB
:101910001C922E173F07B9F70C94840B90E2980F96
:10192000983050F4877091E001C0990F8A95EAF7DA
:10193000892F0E947C0BF0CF9BE5980F933020F409
:1019400090E080E00C94A308885A873120F490E05E
:1019500080E00C948D080895CF93C82F882309F454
:101960004DC08CEF8C0F813AF8F4EAEFF1E080E0A3
:1019700092E0DF012D91C21759F08A179B07D1F72A
:101980006C2F88EF91E00E947308CF910C94840B28
:101990002191C21303C0DF0111971C928E179F077C
:1019A000B9F70E94840BECCF80E28C0F883068F48A
:1019B000C77021E030E001C0220FCA95EAF780919C
:1019C0006202822B80936202E0CF8BE58C0F833022
:1019D00038F42C2F2452330BC901CF910C94A30857
:1019E000C85AC73158F4EC2FF0E0EE0FFF1FE6594C
:1019F000FE4F80819181CF910C948D08CF910895F5
:101A0000982F82958F7011F0982F84E0292F2695BA
:101A1000269511F08E5F922F969509F08F5F0895AD
:101A2000CF92DF92EF92FF920F931F93CF93DF93AA
:101A30006C017B0164E670E088E70E946A30EC018B
:101A400097FD12C010E000E0F601E00FF11F849155
:101A500064E670E00E94E430EC01892B29F40F5F0A
:101A60001F4F0E151F0581F70E947131CE01DF91C6
:101A7000CF911F910F91FF90EF90DF90CF9008953D
:101A80008091E2059091E305911103C091E08927CF
:101A90000895882369F062E070E08DE59AE00E9485
:101AA000100D892B19F08091E20508951092E2053E
:101AB0008091E205EBCFCF93DF9300D000D00F925F
:101AC000CDB7DEB78091E2058D838091E305882351
:101AD000F1F00E945308DC01CB01805A9541AF4FD1
:101AE000BF4F8093DE059093DF05A093E005B09390
:101AF000E1058D81811108C062E070E08BE59AE01C
:101B00000E94100D892B61F08091E2058D838D81FB
:101B10000F900F900F900F900F90DF91CF9108953D
:101B200081E08093E205F0CF8093EF057093F1059B
:101B30006093F0058091FF058430F9F48093E9000B
:101B40008FEF9091E800815095FD06C095ED9A9534
:101B5000F1F700008111F5CF8091E80085FF0DC0FD
:101B600050E040E063E070E08FEE95E00E940607F1
:101B70008091E8008E778093E8000895BC0184E0AE
:101B80000C94940DBC0183E00C94940DCF93DF93DF
:101B9000D82FC92F81E08093E9008FEF9091E80062
:101BA000815095FD06C095ED9A95F1F700008111E1
:101BB000F5CF8091E80085FF16C050E040E068E076
:101BC00070E08D2F9C2F0E9406078091E8008E7791
:101BD0008093E80088E0ED2FFC2FA5EFB5E00190A1
:101BE0000D928A95E1F7DF91CF910895609161019F
:101BF0008091CE0380FF20C08091600143E0849FEC
:101C0000C001112484509D4F539A2BB1277F3BB1C3
:101C100038605FB7F894FC01649FE00DF11D11245A
:101C2000BF0168177907D1F45FBF8FE594E0019792
:101C3000F1F700C000000895809162019091630166
:101C400023E0829FF0011124E450FD4F8917A0F694
:101C50001182108212828F5F3396F8CFFC0141917E
:101C6000CF01E8E03BB9000000C047FF2BB9440FAB
:101C7000000000C000C000C02BB900C0EA9591F779
:101C8000D0CF0F931F93CF93DF93EC0110E000E0D0
:101C9000909164019017110609F06CF40E94F60D02
:101CA0008C8190E00196817099278C83DF91CF9190
:101CB0001F910F91089520916201A801420F511DBB
:101CC0009A01220F331F240F351F24503D4F4C81A2
:101CD0006091D0038091CF0396959017110669F01B
:101CE00064F0442361F04091D103493708F048E79C
:101CF0000E94F1080F5F1F4FCBCF4423A1F340E0B8
:101D0000F7CFEF92FF920F931F93CF93DF93CDB74F
:101D1000DEB72E970FB6F894DEBF0FBECDBF8D870E
:101D20009E87AD85BE8514961C91212F30E0D90188
:101D30000E9411349B01AC010E94273469837A838D
:101D40008B839C83E0E2F0E0E11BF109A5E5B0E0C4
:101D50009B01AC010E94273469877A878B879C8717
:101D60009F01DF010E9409346D837E838F839887F2
:101D70009B01AC010E9432349B01AC0169817A81E4
:101D80008B819C81260F371F481F591F69857A85D3
:101D90008B859C850E94DA33F22E822F90E079E2C7
:101DA000721788F183E0289F9001112435952795BB
:101DB000122F109500E085E5E82EEF188091640160
:101DC000081780F10E94F60DAD85BE8514969C9192
:101DD00081E0992319F0903219F48FEF80935F011D
:101DE00080915F01890FED85FE8584832E960FB665
:101DF000F894DEBF0FBECDBFDF91CF911F910F9141
:101E0000FF90EF90089525E530E0D901A81BB90BAC
:101E10009D01220F331F2A0F3B1F37FFC7CF2F5FB4
:101E20003F4FC4CF8E2D01FD8F2D20916201E22FF7
:101E3000E00FFF27FF1F9F01220F331F2E0F3F1FB1
:101E400024503D4F412F193708F048E76091D003E7
:101E50000E94F1080F5FB2CFCF92DF92FF920F93F3
:101E60001F93CF93DF93EC018C81811109C081E036
:101E70008C831092FA0292E090935E0180935D0150
:101E8000109162019091630183E0189FF001112489
:101E9000E450FD4F812F891778F100E093E0F92E8F
:101EA00060916401061770F10E94F60D80915D014A
:101EB0002091FA02280F2093FA0290915E01980F68
:101EC00090935E01191654F4022E000C330B4091CE
:101ED00064014150550B2417350734F081958093E8
:101EE0005D01813009F41C82DF91CF911F910F9128
:101EF000FF90DF90CF9008951182108212828F5F41
:101F00003396C9CFC02ED12C70E0C6010E94C633D3
:101F1000810F482F50E02091FA02022E000C330B63
:101F2000C216D306D4F020915E01022E000C330BB2
:101F30002C153D0594F08F9D9001112424503D4FA8
:101F40004091D103493708F048E76091D003809170
:101F5000CF030E94F1080F5FA3CFFA01EE0FFF1F1E
:101F6000E40FF51FE450FD4F118210821282F3CF6F
:101F70009F92AF92BF92CF92DF92EF92FF920F9318
:101F80001F93CF93DF93EC018A81BB24BA9480FD29
:101F900002C0BB24B394A09064018C81811109C05C
:101FA00081E0B81225C08FEF8A0D8093F90281E09D
:101FB0008C83F12CE12CEA14F0F00E94F60D809154
:101FC000F90291E0B91261C081115AC08091640197
:101FD00081508093F9021C82DF91CF911F910F9164
:101FE000FF90EF90DF90CF90BF90AF909F900895BB
:101FF0001092F902DCCF009162010E0D1F2D111D10
:10200000C801880F991F080F191F04501D4FF801B0
:1020100011821082128234E0C32ED12C912C809137
:10202000F902890D873444F166E40E94B833892FA0
:10203000082E000C990B8E159F05A9F48091D103F1
:102040008C9DA0018D9D500D11245595479555955A
:102050004795493708F048E798016091D00380918F
:10206000CF030E94F1089B0CF1E0CF1AD108B9F61A
:102070008FEFE81AF80A9FCF87FFDACF8A0DD8CF03
:1020800081508093F902BC82A7CF90E001966091C5
:10209000640170E00E94C6338093F9028C839CCF68
:1020A000EF92FF921F93CF93DF93EC0110E0EE24A9
:1020B000EA94F12C60916401161770F00E94F60DFD
:1020C0009A818C8190FF2AC08F5F8C83DF91CF91A2
:1020D0001F91FF90EF90089520916201422F410FD0
:1020E0005527551FCA019A01220F331F280F391F88
:1020F00024503D4F4091D103493708F048E770E044
:10210000C7010E94C633962F8C816091D003199F1E
:10211000800D11240E94F1081F5FCCCF8150D5CFD4
:102120009091CE0390FF14C09091620120916301C1
:1021300033E0939FF0011124E450FD4F921710F00B
:102140000C94F60D8183608342839F5F3396F6CFB4
:1021500008950F931F93CF93DF9300D00F92CDB7C5
:10216000DEB78C018091FB0281110AC09E012F5FB6
:102170003F4F48E76FEF0E94F1088A818093FB028E
:10218000F8016481613049F06230F1F08091FB0226
:1021900040E0662331F040E019C06091FB0240E06E
:1021A00080E00E949010F801848190E0019663E045
:1021B00070E00E94C63384830F900F900F90DF91E0
:1021C000CF911F910F9108954091FB0280E060E054
:1021D000E8CFCF93DF9300D00F92CDB7DEB79091C9
:1021E000CE0390FF0DC0493708F048E79E012F5FEE
:1021F0003F4F0E94F1084B8169818A810E949010B3
:102200000F900F900F90DF91CF910895CF93DF93B0
:10221000EC01EEECF3E0438162818C810E94E910D5
:102220008C818F5F8C83DF91CF910895CF93DF9363
:10223000EC01EC81F0E0E55EFB4F4491EEECF3E065
:10224000628181810E94E9108C818F5F8C83DF9194
:10225000CF910895EEECF3E080818E7F80830E9421
:10226000D408E6EFF2E08281816082832FEF80E77D
:1022700092E0215080409040E1F700C000000C94B3
:10228000F60D9F92AF92BF92CF92DF92EF92FF92A4
:102290000F931F93CF93DF93082FD92EC62E972E1F
:1022A0007A0180919902AA24A394B12C8A3018F45F
:1022B0008AE0A82EB12CC1E0D0E0F8946C2D792DE5
:1022C000802F9D2DF7010995182F0E948C0911115F
:1022D00004C02196AC16BD066CF4812FDF91CF911E
:1022E0001F910F91FF90EF90DF90CF90BF90AF9034
:1022F0009F900895CC9F9001CD9F300D300D1124FB
:1023000090E080E045E34A95F1F7000001968217DE
:102310009307C1F7D2CF80916F02811118C088EC6A
:102320009091E30097FD10C0EFE3FCE93197F1F7DE
:1023300000C000008150A1F782E080936F020E94EC
:10234000B6061092FF0503C081E080936F0281E022
:1023500090916F02913011F080E0089508950E94ED
:102360008B11882351F0E091E605F091E705309755
:1023700021F00190F081E02D099480E00895CF9341
:10238000DF9300D000D0CDB7DEB70E948B11882339
:1023900041F00F900F900F900F90DF91CF910C9420
:1023A00053080E94530869837A838B839C838091AE
:1023B0009A0290919B02A0919C02B0919D0229816A
:1023C0003A814B815C81280F391F4A1F5B1FCA016C
:1023D000B9010F900F900F900F90DF91CF9108955A
:1023E0000F931F93CF93C82F0AE010E0893311F4A5
:1023F00000E510E08C2F0E94AC0C8FE99FE0019764
:10240000F1F700C0000001501109B9F78C2FCF91EE
:102410001F910F910C94790CCF93DF93C7E0D2E01A
:1024200060E0CE010E947A342196C11584E0D8077D
:10243000B9F7DF91CF9108956F927F928F929F921B
:10244000AF92BF92CF92DF92EF92FF920F931F93C2
:10245000CF93DF93D12CC12C3BEAA32EB12CE50105
:10246000C857D10936011BC0F70185909490692D9A
:10247000C8010E947A34682DC80101960E947A34FE
:1024800022E0E20EF11C0E5F1F4FC017D10761F76B
:1024900036E0630E711C2C96CA15DB0559F0C3019A
:1024A000880F991F9C01215A354F79018E010C50DC
:1024B0001109DACFCE0188589F4F5C019CE3C90E09
:1024C000D11CC331D24059F6DF91CF911F910F91AA
:1024D000FF90EF90DF90CF90BF90AF909F908F9044
:1024E0007F906F900895CF93C82F6FEF811162E2B4
:1024F00083E290E00E947A346FEFC11162E184E2DE
:1025000090E00E947A346FEFC11163E085E290E0C1
:10251000CF910C947A3480E00E94731260E086E2DE
:1025200090E00E947A340E941C120E940C1281E0FA
:102530000C947312CF93C0919F02C2FB992790F91C
:10254000981799F080FBC2F9C0939F0260919E0298
:1025500084E090E00E947A346C2F82E290E00E9446
:102560007A3482E0CF910C943D0CCF9108950F9373
:102570001F93CF93DF93C42FD0E0CC0FDD1F2CE04F
:10258000629FC00DD11D112438E7839FC00DD11D5E
:102590001124CE0187960E946634082F10E0102F78
:1025A0000027CE0188960E9466349801282BC90125
:1025B000DF91CF911F910F910895462F672F84309F
:1025C00030F47A3020F4463010F40C94B71290E0D6
:1025D00080E00895DF92EF92FF920F931F93CF93C5
:1025E000DF937C0100910C0680916402082BC7E008
:1025F000D0E010E0DC2EC8010C2E02C09595879526
:102600000A94E2F780FD0CC02197A0F7D12C8D2D04
:10261000DF91CF911F910F91FF90EF90DF90089580
:10262000B7018C2F0E94DD120E94EA09019761F325
:10263000EECFCF93DF93D82FC92F0E94EA126D2FD0
:102640007C2F0E94DD12DF91CF910C94EA09FC01EE
:10265000808191810E941913282F892F8F70392F23
:1026600032953F70903C80F43A30B0F4343020F42E
:10267000323090F480E008953630E1F781E0283E72
:1026800088F0213FB9F70EC03C3011F03F3091F790
:10269000869586958695089581E0203F39F018F457
:1026A000283E40F70895243F29F7FCCF089583E2A0
:1026B00090E00E946634823289F484E290E00E94C5
:1026C0006634823159F485E290E00E94663491E0EC
:1026D000833009F090E0892F8170089580E0FCCF6D
:1026E000CF9384E090E00E946634C82F82E290E0AD
:1026F0000E946634982F8C2FCF9108951F93CF930B
:10270000DF93982F162F81E09A3019F09D3031F425
:1027100080E0DF91CF911F910C942314C091DC05D0
:10272000D091DD0586E0FE01A6EDB5E001900D92A9
:102730008A95E1F7903EA8F186E0FE0111928A9514
:10274000E9F7C091DC05D091DD05111136C046E0F6
:1027500050E0BE0186ED95E00E9450349E01265D5A
:102760003340892BA9F52A5F3F4F4091D303642F53
:1027700070E0C9010E949833481B463010F4240FC2
:10278000311D211572E0370710F030E020E02A52A9
:102790003C4F3093DD052093DC05DF91CF911F91F5
:1027A0000895F6E09F9FB0011124655E7A4F46E0E0
:1027B00050E0CE010E943A34C4CF9E012A5F3F4FC1
:1027C000FE012E173F0719F2808180958193F9CF82
:1027D000C90145E0969587954A95E1F741E050E0BB
:1027E000BA0102C0660F771F8A95E2F7CB016091AC
:1027F000D4037091D503862B972BB9016B5F7F4F64
:10280000E5E076956795EA95E1F702C0440F551F1C
:102810006A95E2F7842B952B9093D5038093D4038C
:10282000A2CF1F93CF93DF93EC01162FFE0184916B
:10283000811104C0DF91CF911F910895612F0E94F3
:102840007E132196F3CFCF93382FE091DC05F091E2
:10285000DD05E65DF3402091D303622F70E0CF01E8
:102860000E949833281B822F332369F066E00E9470
:10287000AC33C82FC15010F4CF91089560E080E2CE
:102880000E947E13F7CF9F01280F311D2115324082
:1028900018F080E0F0E0E0E08E0F9F2F911D8A524B
:1028A0009C4F9093DD058093DC05E6CF0E941114C8
:1028B00081E00C94231410926202EAEFF1E086E0CA
:1028C000DF011D928A95E9F70C94140C1F93CF93A6
:1028D000DF93CDB7DEB7AA970FB6F894DEBF0FBE71
:1028E000CDBF81E096E0FC0101962091F1002083AC
:1028F00026E089309207B9F780910206893009F401
:1029000056C0C8F4823009F4B3C0833009F482C0E1
:10291000813071F18091E80083FF85C280910106CA
:10292000909102069A3008F07EC2E92FF0E0E0555F
:10293000FB4C0C94FC338A3009F489C08B3051F77E
:1029400080910106813231F780910506909106064B
:10295000892B01F78091E800877F8093E8000E942F
:10296000300780910306809365010E945B14D2CFEB
:1029700080910106813A71F68091E800877F80930B
:10298000E8008091050690910606892B61F468E0C5
:1029900085EF95E070E00E94E2078091E8008B7778
:1029A0008093E800B7CF60E090E080E0F3CF8091C3
:1029B0000106813209F0AECF80910506909106069E
:1029C0008D7F892B09F0A6CF8091E800877F8093C7
:1029D000E8008091E80082FF18C09091F300809198
:1029E000F200029731F48091F100813011F08630CD
:1029F00021F48091F1008093F4058091E8008B77B9
:102A00008093E8000E94300785CF8091FF058111F7
:102A1000E0CF80CF80910106813A09F07BCF809191
:102A2000050690910606892B09F074CF8091E80085
:102A3000877F8093E8008091E80080FFFCCF809141
:102A400065018093F1008091E8008E77D9CF809165
:102A50000106813209F05ECF8091E800877F809384
:102A6000E8000E943007809104068093F30552CF5E
:102A700080910106813A09F04DCF8091E800877F6F
:102A80008093E8008091E80080FFFCCF8091F305FF
:102A9000D8CF803899F0823809F0C5C180910506F9
:102AA0008F70873008F0BFC18093E9008091EB0000
:102AB00085FB882780F91092E90006C08091FD050A
:102AC0009091FE05911182609091E800977F90931C
:102AD000E8008093F1001092F1008091E8008E7779
:102AE0009EC1882309F48CC1823009F09CC1809179
:102AF000030681118FC1809105068F702FEF280F7B
:102B0000263008F090C18093E9002091EB0020FF6F
:102B100081C1933031F48091EB0080628093EB00AF
:102B200079C19091EB0090619093EB0021E030E04F
:102B300001C0220F8A95EAF72093EA001092EA007A
:102B40008091EB008860EACF81116DC1109103067E
:102B50001F778091E3008078812B8093E300809140
:102B6000E800877F8093E8000E9430078091E800AA
:102B700080FFFCCF8091E30080688093E30082E0D7
:102B8000111183E08093FF054EC18058823008F018
:102B90004AC140910306509104064C3D83E058071A
:102BA000A1F583E08A838AE289834FB7F894DE0136
:102BB000139620E03EE051E2E32FF0E050935700FF
:102BC000E49120FF03C0E295EF703F5FEF708E2F1E
:102BD00090E0EA30C0F0C7968D939D932F5F24312B
:102BE00059F74FBF8091E800877F8093E8006AE241
:102BF00070E0CE0101960E94E2078091E8008B7799
:102C00008093E80010C1C096E7CF809105069091AF
:102C10000606252F33272330310509F44AC078F5FD
:102C20002130310509F479C08BE590E0EFE3FCE059
:102C30002230310509F0F7C02091E800277F20936A
:102C4000E80020910706309108068217930708F4E0
:102C50009C0140E02115310509F064C0411162C0BA
:102C60008091E80082FDC9CF8091FF05882329F279
:102C7000853019F28091E80083FFF2CFBECF213278
:102C8000310509F43BC02232310509F0CCC0833054
:102C9000910508F0C8C0FC01EE0FFF1FE651FE4F82
:102CA0000190F081E02D89519E4FDC018C9190E0E4
:102CB00011C0CA019927413089F082309105B1F0E5
:102CC000892B09F0B0C0E6EDFCE0E4918E2F90E096
:102CD000E6EDFCE0009709F4A6C0AECFEAEBFCE01D
:102CE000E4918E2F90E0EAEBFCE0F4CFECEAFCE01C
:102CF000E4918E2F90E0ECEAFCE0ECCF833091057C
:102D000008F091C0880F991FFC01E051FE4F01901F
:102D1000F081E02D89E090E08FCF82E190E0EAE958
:102D2000FCE08ACF8091FF05882309F466CF8530C7
:102D300009F463CF8091E80083FD5FCF8091E800C4
:102D400082FD8ECF8091E80080FF84CF9091F300C8
:102D50008091F2002115310519F08830910550F06D
:102D600041E0089709F040E08091E8008E77809379
:102D7000E80070CF44914093F10031962150310921
:102D80000196E8CF803809F04EC08091E800877F37
:102D90008093E800809100068093F1009ECE81111F
:102DA00042C0109103061230F0F58091E800877F51
:102DB0008093E800109300060E943007112311F061
:102DC00084E005C08091E30087FDFACF81E0809325
:102DD000FF0542E061EC81E00E944F0742E261ECB6
:102DE00084E00E944F0742E261EC82E00E944F07BC
:102DF00042E260EC83E00E944F078091FF0513C020
:102E000080910306813079F481E0933009F080E00D
:102E10008093FE051092E9008091E800877F8093FF
:102E2000E8000E9430078091E80083FF0AC080918B
:102E3000E800877F8093E8008091EB0080628093B8
:102E4000EB00AA960FB6F894DEBF0FBECDBFDF91A0
:102E5000CF911F9108950F931F93CF93DF938B0111
:102E6000D82FC92F0E94DB08A8016D2F7C2F88E086
:102E700090E0DF91CF911F910F910C948C34AF9221
:102E8000BF92CF92DF92EF92FF920F931F93CF9357
:102E9000DF9300D000D000D00F92CDB7DEB7082F5F
:102EA000F62E142FD22E9091CE0390FF41C0E92F21
:102EB000E695AE2FB0E0AE53BE4F8C918093F602F4
:102EC0009E7F923009F045C0493708F048E79E01DF
:102ED0002F5F3F4F6F2D802F0E94F1084B8169813A
:102EE0008A810E9490108091CF03801308C0809146
:102EF000D0038F1104C08091D103811729F08091F4
:102F0000F80282608093F8020093CF03F092D0031E
:102F10001093D103DD2061F08091CE039091CF0317
:102F2000A091D003B091D103BC01CD010E942B1719
:102F300027960FB6F894DEBF0FBECDBFDF91CF91BD
:102F40001F910F91FF90EF90DF90CF90BF90AF90C7
:102F50000895823019F41091D103C5CF863019F449
:102F60000091CF03C0CF8930D9F3893109F0BBCFAD
:102F7000E9518E2F8170C82EE695F0E0EA5EFB4F96
:102F8000A590B490E12CBB2460916401E61618F082
:102F90000E94F60DA8CF2E2D30E0EA9CC001EB9CDC
:102FA000900D112470E00E949833802FC11016C03C
:102FB000860F40916201420F532F511D9A01220F3B
:102FC000331F240F351F24503D4F412F193708F070
:102FD00048E76F2D0E94F108E394D6CF861BE9CF16
:102FE000EEECF3E0438121E1421B08F440E021E0F4
:102FF000628181810C943F17EEECF3E0438121E183
:10300000420F08F44FEF21E0628181810C943F1759
:10301000EEECF3E0628121E1621B08F460E021E064
:10302000438181810C943F17EEECF3E0628121E152
:10303000620F08F46FEF21E0438181810C943F1708
:10304000EEECF3E0818121E0438162818A500C94AF
:103050003F17EEECF3E0818121E043816281865FDE
:103060000C943F17CF93DF9300D000D0CDB7DEB7DD
:103070008091D203882319F081508093D2038091EC
:10308000CE039091CF03A091D003B091D103898357
:103090009A83AB83BC83BC01CD010F900F900F903E
:1030A0000F90DF91CF910C942B17CF93DF9300D02B
:1030B00000D0CDB7DEB78091D203833018F48F5F94
:1030C0008093D2038091CE039091CF03A091D0033F
:1030D000B091D10389839A83AB83BC83BC01CD01BA
:1030E0000F900F900F900F90DF91CF910C942B17B2
:1030F000CF93DF9300D000D0CDB7DEB7EEECF3E096
:1031000083E0808311828FEF828388E78383148238
:10311000A6EFB2E012968C911297836012968C9370
:1031200080819181A281B38189839A83AB83BC839F
:10313000BC01CD010F900F900F900F90DF91CF91B8
:103140000C942B1769EE7EEF90E080E00E9498349B
:1031500060E082E090E00E947A3460E083E090E0FA
:103160000E947A341092640260E084E090E00E9451
:103170007A3460E082E290E00E947A3460E085E098
:1031800090E00E947A3460E086E090E00E947A3419
:103190006FEF87E090E00E947A3440E050E0BA019F
:1031A00088E090E00E948C3460E08DE090E00E9426
:1031B0007A3440E050E0BA0188E190E00E948C341B
:1031C00060E087E190E00E947A3440E050E0BA018C
:1031D0008CE190E00E948C3470E060E080E290E04E
:1031E0000E94983440E050E0BA0188E190E00E94EB
:1031F0008C3480E00E9473120E948B1240E050E0F9
:10320000BA018FE090E00E948C3440E050E0BA01B7
:1032100083E190E00C948C34CF93DF93CDB7DEB78D
:1032200028970FB6F894DEBF0FBECDBF85E0EEEC59
:10323000F3E0DE01119601900D928A95E1F78091FD
:10324000F6029091F702A091F8028E839F83A887DF
:103250002885409195025091960260919702709155
:1032600098023FB7F8948091EB059091EC05A091FE
:10327000ED05B091EE053FBF841B950BA60BB70B78
:1032800084369105A105B10510F4222319F180912E
:103290003501909136018F579D4F20913401422F77
:1032A00050E0293010F048E050E0BE016F5F7F4FE2
:1032B0000E945D3485E090E00E94E432892BB1F4F5
:1032C0000E94530860939502709396028093970230
:1032D000909398021092F80281E028960FB6F89425
:1032E000DEBF0FBECDBFDF91CF91089580E0F5CF57
:1032F000CF93DF93CDB7DEB728970FB6F894DEBF34
:103300000FBECDBF40917D0250917E0260917F0241
:10331000709180022FB7F8948091EB059091EC05A5
:10332000A091ED05B091EE052FBF841B950BA60B68
:10333000B70B84369105A105B10570F10E94BF114C
:10334000DC01CB010296A11DB11D89839A83AB8359
:10335000BC8380912B0190912C018F579D4F209120
:103360002A01422F50E0253010F044E050E0BE0129
:103370006F5F7F4F0E945D3484E090E00E94E432F2
:10338000892B61F40E94530860937D0270937E0242
:1033900080937F029093800281E001C080E02896B4
:1033A0000FB6F894DEBF0FBECDBFDF91CF91089569
:1033B0005F926F927F928F929F92AF92BF92CF92C5
:1033C000DF92EF92FF920F931F93CF93DF930F92B1
:1033D000CDB7DEB7562E5A0149016701682E880F16
:1033E0007708C3010E94E432892B09F089C08AE082
:1033F000869DF001879DF00D1124E050FF4F8581DF
:10340000482F50E0882311F041E050E08AE0869D8B
:10341000F001879DF00D1124E050FF4F6681778108
:103420006F577D4FCE0101960E945D34D5014D91BD
:103430005D916D917C912FB7F8948091EB059091FF
:10344000EC05A091ED05B091EE052FBF841B950B07
:10345000A60BB70B84369105A105B10540F4B60162
:10346000C8010E94B9089981891709F450C0E52C58
:10347000550CFF08C7010E94E432892B99F0F12C0A
:103480008F2D0F90DF91CF911F910F91FF90EF90B3
:10349000DF90CF90BF90AF909F908F907F906F9074
:1034A0005F9008958AE08E9DF0018F9DF00D1124AC
:1034B000E050FF4F458150E0C416D50608F4A60140
:1034C0008AE08E9DF0018F9DF00D1124E050FF4F9A
:1034D000668177816F577D4FC4010E945D34B601CC
:1034E000C8010E94B90899818913C9CF0E94530865
:1034F000F5016083718382839383FF24F394C0CFAB
:10350000F12CA601B801C4010E945D34B9CFFF249B
:10351000F394F7CFCF92DF92EF92FF920F931F9326
:10352000CF93DF930F92CDB7DEB7EE24E394F12C67
:1035300008E812E09E012F5F3F4F49E752E063E049
:1035400082E00E94D819082F882349F1D090AD025B
:103550008D2D90E09C012F543D4F79011981F90187
:103560008081181BC12E80E00FC0CA94F7018081B2
:103570008F5F80838AEADD2021F0F1E0DF1203C053
:103580008BE40E94F011802F1C147CF3912F17FD07
:1035900090E0191B11110EC081110E94740B802F35
:1035A0000F90DF91CF911F910F91FF90EF90DF90DF
:1035B000CF9008951F5FF70180818150808389EA51
:1035C000DD2021F0F1E0DF1203C08EE40E94F01153
:1035D000802FE0CFCF92DF92EF92FF920F931F9355
:1035E000CF93DF9300D000D00F92CDB7DEB76B0141
:1035F00085E0E82EF12C02E812E09E012F5F3F4F9C
:1036000045E752E061E080E00E94D819882349F044
:1036100095E0FE013196A0E7B2E001900D929A95F7
:10362000E1F795E0E0E7F2E0D60101900D929A957E
:10363000E1F70F900F900F900F900F90DF91CF91C7
:103640001F910F91FF90EF90DF90CF90089590E041
:1036500080E00E947434893E9E4F11F40C945713FD
:1036600080E008951F920F920FB60F9211242F93AE
:103670003F934F935F936F937F938F939F93AF93FA
:10368000BF93CF93DF93EF93FF93D091E900DF7067
:103690008091EC00C82FC17080FDC0E81092E90055
:1036A0008091F000877F8093F00078940E946614E8
:1036B0001092E9008091F00088608093F000CD2B9B
:1036C000CF70C093E900FF91EF91DF91CF91BF914F
:1036D000AF919F918F917F916F915F914F913F91AA
:1036E0002F910F900FBE0F901F9018951F920F9261
:1036F0000FB60F9211242F933F934F935F936F93C5
:103700007F938F939F93AF93BF93EF93FF9380919A
:10371000E10082FF09C08091E20082FF05C0809134
:10372000E1008B7F8093E1008091DA0080FF24C06C
:103730008091D80080FF20C08091DA008E7F809336
:10374000DA008091D90080FF9BC080E189BD82E1D1
:1037500089BD09B400FEFDCF81E08093FF05809113
:10376000F205811109C00E94B6060E94810780916E
:10377000E20084608093E2008091E10080FF17C046
:103780008091E20080FF13C08091E2008E7F8093E1
:10379000E2008091E20080618093E2008091D80095
:1037A00080628093D80019BC85E08093FF058091EA
:1037B000E10084FF29C08091E20084FF25C080E100
:1037C00089BD82E189BD09B400FEFDCF8091D8009A
:1037D0008F7D8093D8008091E1008F7E8093E100FF
:1037E0008091E2008F7E8093E2008091E200816010
:1037F0008093E20080910006882309F447C084E0AA
:103800008093FF058091FF058091E10083FF27C031
:103810008091E20083FF23C08091E100877F809345
:10382000E10082E08093FF05109200068091E100A4
:103830008E7F8093E1008091E2008E7F8093E20092
:103840008091E20080618093E20042E060E080E0ED
:103850000E944F078091F00088608093F000FF91F4
:10386000EF91BF91AF919F918F917F916F915F91F8
:103870004F913F912F910F900FBE0F901F90189571
:1038800019BC1092FF051092F20576CF8091E300EB
:1038900087FD02C081E0B4CF83E0B2CF78941F925D
:1038A0001FB61F9211248F939F93AF93BF93809164
:1038B000EB059091EC05A091ED05B091EE05019618
:1038C000A11DB11D8093EB059093EC05A093ED0530
:1038D000B093EE05BF91AF919F918F911F901FBE46
:1038E0001F9018959C014FB7F8948091EB0590912B
:1038F000EC05A091ED05B091EE054FBF821B930B37
:1039000008952FB7F8948091EB059091EC05A09164
:10391000ED05B091EE052FBF0895FF920F931F9311
:10392000CF93DF93C62FD42F122FFC0182818823DF
:10393000A9F060930B060E94811C90930A06809365
:103940000906C77081E001C0880FCA95EAF7DF91C8
:10395000CF911F910F91FF900C946F0C80910B06EB
:10396000681334C08091090690910A060E94721C67
:103970008436910558F500E20D0FCD17A9F0C770F8
:10398000FF24F3948F2D01C0880FCA95EAF70E9497
:10399000680C083048F48D2F877001C0FF0C8A95A1
:1039A000EAF78F2D0E946F0C812F0E94F0110830D2
:1039B000A0F4D77081E001C0880FDA95EAF7DF91B3
:1039C000CF911F910F91FF900C94680CC77081E00C
:1039D00001C0880FCA95EAF7F2CFDF91CF911F910E
:1039E0000F91FF9008950E948B1181110C94811CFE
:1039F0000E94BF11CB0108956091CE03669570E0DF
:103A00004BE050E082E591E00E944334892B19F4A9
:103A100081E08093F7020E94F31C9093F10280935F
:103A2000F0028091F80284608093F8020895CF93A9
:103A3000DF9300D000D0CDB7DEB79091CE0390FFDA
:103A400047C0917081113AC092609093CE038091EB
:103A5000F80281608093F802662381F08091CE03A2
:103A60009091CF03A091D003B091D10389839A8321
:103A7000AB83BC83BC01CD010E942B176091CE03A8
:103A8000669570E04BE050E082E591E00E9443349F
:103A9000892BD9F00E94D40881E08093F30220E0C2
:103AA0004091D1036091D0038091CF030F900F908C
:103AB0000F900F90DF91CF910C943F17853210F04B
:103AC0009864C3CF880F982BC0CF0E94FC1CE4CF12
:103AD0000F900F900F900F90DF91CF9108959091DC
:103AE000CE0396958FEF890F913009F484E261E05F
:103AF0000C94171D8091CE0386958F5F853208F058
:103B000081E061E00C94171D9091CE0390FF07C0F7
:103B10009695981720F0961710F40C947A1D61E092
:103B20000C94171D3F924F925F926F927F928F92EB
:103B30009F92AF92BF92CF92DF92EF92FF920F933C
:103B40001F93CF93DF93CDB7DEB729970FB6F894C5
:103B5000DEBF0FBECDBF8C01DC0113968D919C9111
:103B60001497892B39F08C9111969C9189238F3F62
:103B700009F075C629960FB6F894DEBF0FBECDBF0B
:103B8000DF91CF911F910F91FF90EF90DF90CF9039
:103B9000BF90AF909F908F907F906F905F904F906D
:103BA0003F9008950E94EA12F82E682F89819A8129
:103BB0000E94E50B69817A818F2D0E94DD127C01C4
:103BC000F8018281882309F43CC6970122513F45C0
:103BD0002031310508F0D2C58FEF93E00E946634A2
:103BE000FEEEEF0E47E0842E42E0942E8823B1F1E2
:103BF00080915F02877009F4BDCFD80112968C9135
:103C0000882309F4B7CF80919F0282FDB3CF82E071
:103C100029960FB6F894DEBF0FBECDBFDF91CF91CE
:103C20001F910F91FF90EF90DF90CF90BF90AF90DA
:103C30009F908F907F906F905F904F903F900C94EB
:103C40003D0C811424E0920699F2C4010E9466346E
:103C5000811101C0EA943FEF831A930AE110F1CF7A
:103C60008091660190916701A0916801B09169010E
:103C700089839A83AB83BC83442443943AE0332EF4
:103C800074018FEFE81AF80AC4010E946634898330
:103C90001A82882309F4ACCF9FEF980F933000F578
:103CA0008A83498292E0890E911CC7010E94663482
:103CB0008B83882309F49CCFDE0111967D01F701E7
:103CC00020812223E9F2213009F04AC091818281CA
:103CD000913041F4F2E0EF0EF11C0E94F01109C0A6
:103CE0004701EACF923049F422E0E20EF11C0E9433
:103CF000AC0CEFEFEE1AFE0AE2CF933031F432E073
:103D0000E30EF11C0E94790CF4CF943021F08FEF78
:103D1000E81AF80AEECF92E0E90EF11C30E020E05C
:103D2000B7016F5F7F4FD70111964C918053990B6C
:103D30008A30910550F021503109D8F2EFE9FFE0C7
:103D40003197F1F700C00000F6CF329EF001339EAC
:103D5000F00D11249C012E0F3F1F842F7B01E0CF1B
:103D6000E22FF0E0E851FE4F5490822F8695869521
:103D7000869590E0FC01E852FE4F64902770712C0C
:103D8000022E02C0759467940A94E2F731E0632230
:103D90007724FC01E853FE4FA490B12C022E02C000
:103DA000B594A7940A94E2F7A1E0AA22BB24FC01EF
:103DB000E854FE4FC490D12C02C0D594C7942A95E4
:103DC000E2F7B1E0CB22DD246114710419F081EE39
:103DD0000E94AC0CA114B10419F086EE0E94AC0C48
:103DE000852D0E94F011AB2819F086EE0E94790C07
:103DF000672819F081EE0E94790CCD2809F479CF5B
:103E00008CE26BCF81E00E94590C0E94260CF0CE10
:103E100081E00E94310CF9CF82E0F5CFB5EFEB16CF
:103E2000BCE5FB06E9F027E245EE66EEE6EFEE16AE
:103E3000ECE5FE0649F027E245EE64EEF4EFEF16FE
:103E4000FCE5FF0609F0C5C4C8010E948D1CD0CE58
:103E500027E245EE65EEF8CF26E241EE60EEF4CFC4
:103E600026E241EE62EEF0CF81E6E8168DE5F80637
:103E700009F4C5C4EAE5EE16EDE5FE0609F4DEC177
:103E800008F0BAC1E1142CE5F20609F4CAC13EED0E
:103E9000E3163CE5F30609F0DCC00E94A218A8CEA8
:103EA000F701E350FC4580919E028160E331F1050A
:103EB00048F5E654FB4C0C94FC33B3E0EB16BDE53F
:103EC000FB0680F4EAEFEE16ECE5FE0608F4A9C462
:103ED000F701EB5FFC45E830F105F8F4E353FB4CE8
:103EE0000C94FC33F1E6EF16FDE5FF0609F099C4EA
:103EF00090919E02892F8F7E94FF806103C08091F4
:103F00009E02826080939E028CC480919E02846097
:103F1000F9CF80919E028860F5CF80919F028160E9
:103F200080939F027EC480919F028260F9CF80912E
:103F30009E028061E7CF80919E028062E3CF8091F4
:103F40009E028064DFCF0E945B1480919E02806895
:103F5000D9CF80919E028C60D5CF80919F028360E3
:103F6000DFCF80919E028E7FCDCF80919E028D7F8C
:103F7000C9CF80919E028B7FC5CF80919E02877FA3
:103F8000C1CF80919F028E7FCBCF80919F028D7F8A
:103F9000C7CF80919E028F7EB5CF80919E028F7D8C
:103FA000B1CF80919E028F7BADCF0E945B14809138
:103FB0009E028F77A7CF80919E02837FA3CF8091AF
:103FC0009F028C7FADCF80919E0282FB992790F952
:103FD00021E0922790FB82F990FB83F993CF8091A7
:103FE0009F02982F909591708E7F892B90FB81F97D
:103FF00097CF0E945B1490919E02892F97FB87F9BF
:10400000805880CF61E08EE090E00E947A3409C44D
:1040100060E0F9CF85E359C480916202827226ED97
:10402000E2162CE5F20680F432ECE3163CE5F306EA
:1040300080F0F701E35CFC45E331F10508F059C07D
:10404000EB52FB4C0C94FC338DE5E816F80609F4B2
:10405000CFCDF8018281C080D180882309F4F2C0DD
:10406000C6010E94EA12F82E682FC6010E94E50BD5
:10407000B6018F2D0E94DD120E94EA09882EE92EDA
:10408000D82ED8011296FC90129715969C90929477
:104090002FE0922280915F028770E9F0CF2CFF2001
:1040A000D9F0892F807F803449F090E2980D9830C4
:1040B00090F0803619F4B6EF8B1669F080919F026C
:1040C00082FD09C082E00E943D0C80915F028770F2
:1040D000CC24C3948111C12C8E2D82958F70A82E73
:1040E000B12C8C3008F01EC1F501E851FB4C0C944A
:1040F000FC338091CE0380FF26C08E7F8093CE0359
:104100008091CE039091CF03A091D003B091D103C1
:104110008E839F83A887B987BC01CD010E942B178E
:104120000E94D4088091F80281608093F8029FEF8A
:10413000A0E7B2E09150A040B040E1F700C000001D
:104140000E94F60D55CD81608093CE0361E0869587
:104150000E94171D4DCD4FE65DE16AE77DE10E94AB
:10416000CF0846CD4AE75DE16FE67DE1F8CF40E25A
:1041700058E169E278E1F3CF49E258E160E278E1A1
:10418000EECF48E058E164E178E1E9CF44E158E15D
:1041900068E078E1E4CF40EF57E16CEF77E1DFCF03
:1041A0004CEF57E160EF77E1DACF42E358E165E5A4
:1041B00078E1D5CF45E558E162E378E1D0CF61E021
:1041C00081E0C6CF65E082E00E94841D11CD68E0E9
:1041D00086E0FACF6EE089E0F7CF64E18FE0F4CFBC
:1041E00067E185E1F1CF61E088E1B2CF62E289E188
:1041F000EBCF61E083E2ACCF8BE5E8168DE5F80606
:10420000F9F09CE5E9169DE5F90609F022CF8091C9
:104210009F0282FB882780F991E089270E949A12E9
:1042200018CF0E945B14AFEFB4E3ECE0A150B040B4
:10423000E040E1F700C000000E94420881E0EECFBC
:1042400080E0ECCFC6010E94BB0BF82E11CFEE2D03
:10425000EF709E2E8E2D807F19F0929490EF992210
:10426000FF20B9F0992069F080E2880D883010F0C5
:10427000D11009C080916202982A909262020E9435
:10428000840B882D4DC080916102982A9092610222
:10429000F6CF882D0E94790C992009F443C080E262
:1042A000880D883010F0D11004C0892D0E947C0B3D
:1042B00006C09094809161029822909261020E94BF
:1042C000840B30C0FE2DFF707F2E8E2D807F8032BC
:1042D00019F0729480EF7822DD2089F021E0D21667
:1042E00009F495C0FF2009F49FC0992009F495C0F6
:1042F000F801958190FFC5CF9F7095838EC0209166
:104300009F0222FF61C0FF2009F456C0772039F0D8
:10431000809162028729809362020E94840B80E070
:104320000E94AC0CB8E0AB1AB108E4E0AE16B104E0
:1043300010F40E94AF11FF2079F09E2D907F9036EF
:1043400019F4F6EFDF1641F080910C02823009F08B
:104350000DC283E080930C02CC2009F40BCC809139
:104360005F0280FD07CCD80112961C928595859539
:1043700085950E94590CC8010E94921D80915F0290
:1043800085958595859529960FB6F894DEBF0FBE65
:10439000CDBFDF91CF911F910F91FF90EF90DF90F4
:1043A000CF90BF90AF909F908F907F906F905F90D5
:1043B0004F903F900C94310C80E00E94790C772054
:1043C00009F4B0CF872D72CFFF20A1F09091630246
:1043D000872D892B911003C00E946F0CA3CF31E071
:1043E0009312FACF22FD9ECF981709F49BCF8093AA
:1043F000630298CF911006C00E94760B872D0E9411
:10440000680C90CF81E0981609F48CCFF5CFFF208F
:1044100031F095E0991508F485CF872DDDCFA4E024
:10442000A91508F47FCFEACF992041F3F9E3DF1211
:1044300026C12FEF37EE83E0215030408040E1F776
:1044400000C00000882D0E94790C6CCF8E2D8695BF
:104450008695837069F0813009F064CF882D9E2D98
:104460009370F11002C090E080E00E948D085ACF56
:10447000882D9E2D9370F11002C090E080E00E9484
:10448000A30850CF9E2D9370A9F5F1104BCF982D16
:10449000929596959770990F990F482D4F70092E08
:1044A00001C0440F0A94EAF7282D207184FE07C04A
:1044B0002FE030E001C0220F9A95EAF720959E2D5B
:1044C000969596959370923081F0822F842B93303D
:1044D00031F080916402913029F0242B82230E94D4
:1044E000640C20CF842B822BFACF242B8091640282
:1044F0008227F5CF9695FF2011F09E2D917099237C
:1045000009F410CF982D929596959770990F990F61
:10451000482D4F70092E01C0440F0A94EAF7282D48
:10452000207184FE07C02FE030E001C0220F9A9571
:10453000EAF720959E2D969596959370923081F08E
:10454000822F842B933031F080910C06913029F02A
:10455000242B82230E94220CE5CE842B822BFACFBF
:10456000242B80910C068227F5CFBE2DBF709B2E89
:10457000FF2029F08B2F0E94590C882D2DCF882DDC
:104580000E94680C892D0E94310CCCCE882DE2EF60
:10459000DE16B1F1ED1570F0F0EFDF16D1F021EF7E
:1045A000D21691F0FF2009F45EC091106ACE8E2DD4
:1045B0008F712AC033EFD31651F194EFD912F2CF95
:1045C00080919F0282FF2FC08E2D8F71FF20D9F224
:1045D0001BC0FF2081F0A4E0A91508F4A3CE2E2D66
:1045E0002F7181E090E001C0880F2A95EAF7909141
:1045F0000C068927AFCFB5E0B91508F493CEEFCFFD
:104600008E2D8F71F110BFCF0E94590C8BCE80E0A0
:10461000FF2009F49FCF81E09E2D9F7101C0880F7C
:104620009A95EAF797CFFF2099F0EE2DEF719E2E25
:104630008E2F0E94590C80919F0282FD07C0F8E0E6
:104640009F9EC0011124836080935F02892DDCCF7F
:1046500081E00E943D0C21E0291508F063CE82E044
:104660000E943D0C5FCE992079F0893341F43FEFF1
:1046700087EE93E0315080409040E1F7E1CEAFE328
:10468000BCE91197F1F7DCCE8E2D8F717CCFE0E184
:10469000E80DE73008F03FC0F0E0EC50FB4C0C9424
:1046A000FC33FF2009F43ECE8091260291E0892759
:1046B0008093260237CEF092260234CE81E08F25F9
:1046C000F7CFF1102FCE81E0F3CFF1102BCE109267
:1046D000260228CEFF2021F082E080930C02F3CF47
:1046E00080910C02823021F481E080930C021ACE7A
:1046F000833009F017CE10920C02E9CFFF2039F079
:1047000080912502882381F2109225020BCEB4E01D
:10471000B91550F607CE809125029920D9F088234B
:1047200041F08091260291E0892780932602109221
:104730002502F110A6CDEFE3FCE93197F1F700C0B7
:104740000000882D0E94790C86E0D8011D928A9580
:10475000E9F7E8CD882309F4E5CDF110E3CD8091A8
:10476000260291E0892780932602CECF813009F07E
:10477000F3CD10920C0210922602EECDB0E1EB16B2
:10478000BFE5FB0609F43ECBE1E1EE16EFE5FE06E0
:1047900009F442CBF3EFEF16FCE5FF0609F45CCB1E
:1047A00008F03CCB38EDE3163CE5F30609F450CBBA
:1047B00028E241E099EDE9169CE5F90609F44ACBB7
:1047C00026E241EE61EEA7EDEA16ACE5FA0609F441
:1047D0003BCB882309F46EC010920B0623E0E2164F
:1047E0002DE5F20608F040CB3AEFE3163CE5F30680
:1047F00030F4C70182509C45449708F043C00E94A2
:10480000701390939F0280939E0296E1E9169CE5B7
:10481000F90608F052CBA2E0EA16ACE5FA0608F079
:104820003FCB60919E02F0909F0284E090E00E9456
:104830007A346F2D82E290E00E947A340E945B14F9
:10484000D7C9F0E1EF16FFE5FF0609F4E1CA21E15F
:10485000E2162FE5F20609F09DCF82E0DACA85E084
:10486000F801DE01119601900D928A95E1F7D801C9
:1048700012962C9189819A81211194C90E94BB0BB7
:10488000F82E98C9B6E1EB16BCE5FB0609F0F2CAB2
:10489000809162028A7A91E009F490E090930B0291
:1048A00069E2811165E388EF91E00E9473080E943C
:1048B000840B9EC9E6E1EE16ECE5FE0609F0ACCBF2
:1048C00080910B028111A6CB89E2EAEFF1E020E0B2
:1048D00032E09191891303C0DF0111971C922E17CA
:1048E0003F07B9F7E4CF1F93CF93DF9380912C025A
:1048F000807FA9F480912902882389F080915E024B
:10490000D0912D026091270270912802A0912A0275
:10491000B0912B02C62FC72316E0D81304C0DF9135
:10492000CF911F91089590E0109711F0CF3F19F4A7
:1049300001968770F2CF189F9001199F300D1124B6
:10494000F901E25DFD4F41814713F2CF40814613EB
:10495000EFCF42814111ECCF438154814A1B5B0B65
:104960004436510528F780912C028F708061809326
:104970002C02F901ED5CFD4F80818F708061808396
:1049800087E292E00E94921DDF91CF911F910C94DB
:10499000B10BAF92BF92CF92DF92EF92FF920F9343
:1049A0001F93CF93DF93CDB7DEB72B970FB6F89455
:1049B000DEBF0FBECDBF8C0185E0F801DE0117968A
:1049C00001900D928A95E1F7F801E28087E2A82E26
:1049D00082E0B82E60912A0270912B026115710558
:1049E00009F41AC19091270240912802842F89234B
:1049F0008F3F09F411C120813181C380D480F090B0
:104A00002902F601E61BF70BFF2009F4D0C08091C4
:104A10002C02582F507FE436F10508F0ABC051113D
:104A200077C0FE2C431321C092131FC0E1101DC09C
:104A30008F70806180932C02C5010E94921D80912D
:104A40002C02F80185838F2D2B960FB6F894DEBFCC
:104A50000FBECDBFDF91CF911F910F91FF90EF90CF
:104A6000DF90CF90BF90AF900895CD2829F0822F8E
:104A700083238F3F09F0F9C080E0F82FF170DF2E1B
:104A8000E0915E0240912D0256E080FD1CC0EE20B8
:104A9000D1F280912C02816080932C02F12CD3CF33
:104AA0008E2F90E05E9FF0011124E25DFD4F618149
:104AB000361306C06081261303C06281E612E7CF79
:104AC000FC013196E770E413EBCF2F8338878F8199
:104AD00098850E941913292F22952F70903260F02B
:104AE000225F2F70223078F49F7051F0F801958189
:104AF000907F31F4D12C0AC09F7011F08823D1F33C
:104B0000805E8830B8F3C8010E94921DFD2C9BCFB7
:104B1000431306C0921304C0F801EE2009F461C0EB
:104B2000C8010E942713882309F1EE20F9F0809133
:104B30002C02803270F020912702309128023A83B3
:104B400029831B82DD82CC828E83CE0101960E9456
:104B5000921D86E0F801A7E2B2E001900D928A95DD
:104B6000E1F70E947324FF24F3946DCFC8010E94E3
:104B7000921DF9CF51110AC087E292E00E94921D66
:104B800086E0F50111928A95E9F788CF4313C8CFE3
:104B90009213C6CFE110C4CFF8018583C8010E94EB
:104BA000921D86E0F50111928A95E9F74CCFE43623
:104BB000F105B8F7FE2CEE20C9F243131FC0921383
:104BC0001DC080912C0280FD10C0982F907F69F04D
:104BD000F8018583903F31F0982F907F905F8F7020
:104BE000892B8583C8010E94921D86E0F801A7E207
:104BF000B2E001900D928A95E1F725CFC8010E949D
:104C000027138111A6CF80912C02816080932C0202
:104C1000C8010E94921D17CFEE2009F4A7CFC8014A
:104C20000E942713F82E882309F4A0CF86E0F8010C
:104C3000A7E2B2E001900D928A95E1F780912702F8
:104C4000909128020E94191392959F70963051F40A
:104C5000863F41F08091260291E0892780932602C9
:104C6000909325020E947324EECE81E08E2505CF1D
:104C70000F931F93CF93DF93CDB7DEB767970FB630
:104C8000F894DEBF0FBECDBFE42F4B8B5C8B6D8BDA
:104C90007E8B8F8B752F4E895F8961111092610217
:104CA0004115510509F48EC09E2F97239F3F09F0AF
:104CB00061C07FEFEFEF86C0902F9095292381C0D0
:104CC00086E0FE013796DE01119601900D928A95DD
:104CD000E1F76A857B856115710509F489C05F81FB
:104CE0004885842F85238F3F09F482C020912D02AF
:104CF00030E0C901019687709927E0915E02E817BC
:104D0000190671F40E945B1410922D0210925E023B
:104D100086E0E7E2F2E0DF011D928A95E9F768C0DC
:104D200059834A837D836C8396E0929FD001939F41
:104D3000B00D1124A25DBD4FFE01319601900D9280
:104D40009A95E1F780932D020E94B10B51C0819F8B
:104D5000C0011124825D9D4F0E94C924882309F45B
:104D60004EC080915E0290E00196877099278093F3
:104D70005E023FC001E010E00E2E01C0000F0A9459
:104D8000EAF7A72FB0E0AF5FBD4F2C9190912602BC
:104D9000611102C0922F9023992309F48DCF8E2F99
:104DA00090E036E0739F800D911D1124880F991FAC
:104DB000FC01EF5BFE4F7491FC01E05CFE4FE4915F
:104DC000202B2C931A8AED877E876F87598B488B0F
:104DD00086E0FE013D96DE01179601900D928A95C0
:104DE000E1F7CE0107960E94C924882309F468CF11
:104DF00016E080915E0290912D028913A8CF6796EC
:104E00000FB6F894DEBF0FBECDBFDF91CF911F91DB
:104E10000F9108959F92AF92BF92CF92DF92EF923F
:104E2000FF920F931F93CF93DF93CDB7DEB76397B6
:104E30000FB6F894DEBF0FBECDBF1A821982FE01F5
:104E4000339688E0DF011D928A95E9F78AE9E82E1A
:104E500081E0F82E10E000E0CC24C394D12C2AEAA3
:104E6000A22E21E0B22EF70181917F018F3F09F43C
:104E700046C0F894E82FE295EF70F0E021A18F7022
:104E8000A60102C0440F551F8A95E2F7CA01922F6E
:104E9000982B91A392A18095892382A30E948C09CB
:104EA00000C0E4EAF1E031E0912C21912F3F09F4B8
:104EB0007CC0A22FA295AF70B0E090968C9190E04C
:104EC0002F7002C0959587952A95E2F780FD6DC0F9
:104ED000832F982A330FAE16BF0639F7F7013197A3
:104EE00080818F3F11F00E948E0950EA5A95F1F7A8
:104EF000E1E0F0E0EC0FFD1FE00FF11F90820F5F8B
:104F00001F4F0530110509F0AECF4AE050E0BE0159
:104F10006F5F7F4F80EA92E00E9450347C01892BC2
:104F200049F08AE0FE013196A0EAB2E001900D92CC
:104F30008A95E1F71091AB02E114F104C1F181E02F
:104F4000809367020E94811C9093660280936502A1
:104F500080916502909166020E94721C059778F01C
:104F6000A0EAB2E0E12FF0E0EA51FD4F85EA92E0DD
:104F70002D9121938A179B07D9F71092670281E040
:104F800090E0EF28C1F063960FB6F894DEBF0FBE35
:104F9000CDBFDF91CF911F910F91FF90EF90DF90E8
:104FA000CF90BF90AF909F90089580E092CF809176
:104FB00067028111CDCF0E948B11F82EE091AB02D8
:104FC000882309F488C01C861B869E01235F3F4FFF
:104FD00083E0D9011D928A95E9F70E2F10E00A515E
:104FE0001D4F809199028A3008F03FC04AEE5AE185
:104FF000BE01655F7F4FC8010E944111882309F4FB
:1050000044C04AE85AE1BE01655F7F4FC8010E9473
:1050100041118823D1F148E759E1BE01655F7F4F17
:10502000C8010E944111882381F14CE059E1BE0181
:10503000655F7F4FC8010E944111882331F11092B2
:1050400099028091AA0290E045E050E0BE01655FC0
:105050007F4F8A519D4F0E94503421E020936E0271
:10506000892B61F5F12C8F2D8ECF80916802909164
:1050700069020E94721C843F914008F0B7CF809172
:105080006E02811112C080E07ECF809199028F3F25
:1050900029F08F5F809399028A3098F20E94811CD8
:1050A0009093690280936802EACFFE013B9685E007
:1050B000DF011D928A95E9F710926E02A091AA0273
:1050C000B0E0AA51BD4F85E0FE013B9601900D92E4
:1050D0008A95E1F7C8CFF0E0EA51FD4FF89485E0FA
:1050E000A2E8B2E001900D928A95E1F765E070E0E8
:1050F00082E892E00E94B908809381020E948C09A4
:10510000F894E091B402F0E0EF54FD4F80818B877A
:105110008093880261E070E0CE010B960E94B9088E
:10512000809387020E948C09F894C0908902D090E5
:105130008A02E0908B02F0908C0280916A0290913A
:105140006B02A0916C02B0916D02C816D906EA06F6
:10515000FB06F1F0C0926A02D0926B02E0926C0200
:10516000F0926D020E948B11811112C00E945308AF
:10517000688B798B8A8B9B8BC61AD70AE80AF90A47
:10518000C0929A02D0929B02E0929C02F0929D0201
:105190000E948C09F89480919402882379F180FF11
:1051A0000DC080918D0280FF2CC09091CE03916044
:1051B0009093CE0360E086950E94171D8091940223
:1051C00081FF09C020E04091900260918F028091A0
:1051D0008E020E943F178091940282FF06C0809148
:1051E0009302882389F00E94FC1C8091940283FF23
:1051F00003C081E08093F302109294020E948C0914
:1052000042CF0E942A11DACF0E94D408EECF1F921B
:105210001FB61F9211248F939F93AF93BF938091DA
:10522000EA05811113C08091EB059091EC05A091E6
:10523000ED05B091EE054196A11DB11D8093EB05E2
:105240009093EC05A093ED05B093EE05BF91AF915F
:105250009F918F911F901FBE1F901895CDB7DEB7FD
:10526000A4970FB6F894DEBF0FBECDBF84B7877F7B
:1052700084BF0FB6F894A8958091600088618093F0
:105280006000109260000FBE80E890E00FB6F894C6
:1052900080936100909361000FBE85B7806885BFE1
:1052A00085B7806885BF8AE899E09093F70180937D
:1052B000F6010E94B6060E9481078091E200846098
:1052C0008093E20078948091FF058823A1F01091EB
:1052D000E9001F709091EC00892F817090FD80E8AB
:1052E000182B1092E9008091E80083FD0E9466145B
:1052F0001F701093E90082E084BD93E095BD9AEFA2
:1053000097BD80936E0010929A0210929B021092A9
:105310009C0210929D020E945713811102C00E94AC
:105320008B120E948B1180933C0180913C01882359
:1053300009F46DC01092600183E2809361010E94C4
:105340008B1181110E94D63180913C0180913C01EA
:1053500095E0811190E09093AB0285E0891B8093EA
:10536000AA020AE911E0FFE9EF2EF1E0FF2ED801D1
:105370008D918D018F3F11F00E948E09E016F1068C
:10538000B1F704EA11E0EAEAEE2EE1E0FE2EF801C0
:1053900081918F018F3F11F00E948E09E016F10676
:1053A000B1F78AE0E6EEF2E0DF01682E1D926A9422
:1053B000E9F7E0EAF2E0DF011D928A95E9F70E9441
:1053C000271B811102C00E94A21882E090E00E9477
:1053D00066348093DB020E94701390939F02809347
:1053E0009E020E940A27EFE3FCE93197F1F700C023
:1053F00000000E940A278091E60280FF0CC06FEF38
:105400007FEF90E080E00E9498340E94420883E29F
:105410008093600192CF83E090E00E9466340E9406
:10542000640C0E948B11811102C00E94D9310E942C
:105430008B11882309F488C283E08093D60280FD13
:1054400085C280E88093D3030E9464306DE070E0F1
:105450008BE792E00E94100D892B09F043C08091E8
:10546000D60263E070E081FD73C288E792E00E949B
:10547000100D892BB9F56DE070E088E692E00E948E
:10548000100D892B79F50E94530869A37AA38BA389
:105490009CA3DC01CB01805A9541AF4FBF4F809355
:1054A000DE059093DF05A093E005B093E105E6EDFE
:1054B000F3E080E092E0DF019C011D92215030403A
:1054C000E1F7F093DD05E093DC058FEF9FEF90931C
:1054D000D5038093D40381E08093E3058093E205B4
:1054E0001092D7028091AC02811138C00E94271B14
:1054F000811104C00E94A2180E94781888E090E0F0
:105500000E946E346093CE037093CF038093D003D8
:105510009093D1038091F80283608093F8026E7FAC
:1055200071F40E94781888E090E00E946E346093D5
:10553000CE037093CF038093D0039093D1030E9446
:10554000DB080E94D4088091CE0380FF04C060E095
:1055500086950E94171D81E08093AC0280913C01EA
:10556000811106C084EF80934A0185EF8093490141
:1055700020914A01A22FA295AF70B0E091963C9184
:1055800091972F7081E090E0BC01022E01C0660F60
:105590000A94EAF7462F4095432391964C939197AE
:1055A00092963C919297362B92963C93929740918B
:1055B0004901E42FE295EF70F0E031A14F70042E25
:1055C00001C0880F0A94EAF7982F9095932391A32E
:1055D00092A1892B82A390968C9190E002C0959520
:1055E00087952A95E2F7817020A130E002C03595B9
:1055F00027954A95E2F792E020FF90E0892B80936F
:10560000B50290913C0181E098279093B402891BE8
:105610008093AD028DE391E09093E7058093E605DA
:105620008091FF0500E112E1853009F4CEC10E94AE
:105630000A27E82E81110E94530876EE272E72E089
:10564000372EECEDF2E0D10110E000E0B02EDD905D
:1056500081918D1509F4C9C18D25C12CFF24F394C6
:105660009F2D982309F4BBC10E948B11882399F0C8
:10567000C982BA82DF2081E009F480E08B830E9436
:10568000811C8160782F9D838C8349815A816B8135
:105690008D810E943826F801E452FD4F8081F82662
:1056A000F0828091F702882309F464C08091F602A9
:1056B000E091CE03E695E81BE093F202823009F018
:1056C000ABC1F0E0EA56FD4FE4910E2F10E056E139
:1056D000C52E51E1D52E8091F302882361F01092FE
:1056E000F3020E94F31C9093F1028093F002109257
:1056F000F5021092F4020E94F31C9C01E091F0026A
:10570000F091F1028E1B9F0B8F3F9F4798F5809180
:10571000B0028823B1F01092B0028091AE02909155
:10572000AF02281B390B2F3F3F4758F4805D9A4842
:105730009093AF028093AE028091F80288608093CC
:10574000F802A090F402B090F502E00FF11FF09380
:10575000F102E093F00280EF92E0F601099580916A
:10576000F4029091F502892B29F4AB2819F081E01D
:105770008093B0028091B502E82FEE0FEE0F90916A
:105780004A01A92FA295AF70B0E090962C9130E01D
:105790009F7002C0359527959A95E2F721703327BF
:1057A00090914901A92FA295AF70B0E090964C91CD
:1057B00050E09F7002C0559547959A95E2F7CA014F
:1057C0008170992740FF02C082E090E0822B8E2BEF
:1057D0008093B5021091B4028F70E82FF0E0E65587
:1057E000FE4F80819091B302890F8093B302F12C18
:1057F00082308CF0E12FF0E0EF54FD4F80818F5F1D
:1058000080838AEA112319F0113019F48BE40E9485
:10581000F011FF24F3948091B3028F3F8CF4E12FB9
:10582000F0E0EF54FD4F80818150808389EA11239D
:1058300019F0113019F48EE40E94F011FF24F39452
:105840008091B302082E000C990B62E070E00E9478
:10585000C6338093B302F1100E94740B8091E3056C
:105860008823A1F18091D8029091D9020E94721CE4
:10587000C29708F02BC12091D4033091D503211594
:10588000310509F08FC18091E2058823F9F00E946B
:10589000530869A37AA38BA39CA38091DE05909102
:1058A000DF05A091E005B091E10529A13AA14BA146
:1058B0005CA1281B390B4A0B5B0BDA01C9018F3F36
:1058C0009F4FAF4FBF4710F40E94400DE11001C041
:1058D000F1100E945B0D0E94AF119091DA028917BE
:1058E00021F00E94AF118093DA028091FF0584308D
:1058F00009F096CE83E08093E9008091E80082FF72
:105900008FCE8091E80090E085FF0CC00E94D50604
:1059100030E2E32EF12C8E010F5F1F4F882309F434
:105920001AC291E08091E8008B778093E800992378
:1059300009F476CEE981E150E33108F076C2F0E077
:10594000E550FB4C0C94FC3380E077CD80E27ACDBF
:1059500085E792E08CCD8091FF05843031F10E9483
:10596000400D1092EA0548E150E080E40FB6F8944B
:10597000A895409360000FBE8093600083B7817F3D
:10598000846083BF83B7816083BF7894889583B731
:105990008E7F83BF0FB6F894A895809160008861D0
:1059A00080936000109260000FBE8091FE058823F6
:1059B00061F00E940A27E6EEF2E08191811165C351
:1059C000A0EFB2E0AE17BF07C1F78091FF058530A9
:1059D00009F4C1CF0E945B140E94AF1128CEC3947A
:1059E000FF0C66E0662EC6103BCE0F5F1F4F0A30DD
:1059F000110509F02BCE8FEF89838A831B820E94C9
:105A0000811C8160782F9D838C8349815A816B81B1
:105A10008D810E94382645CE863059F4F0E0ED564F
:105A2000FD4FE4910E2F10E046E0C42E41E1D42E4C
:105A300052CE893061F4E695F0E0E057FD4FE491F5
:105A40000E2F10E030E5C32E30E1D32E44CE8F3040
:105A500061F4E695F0E0E357FD4FE4910E2F10E07E
:105A600028EBC22E2FE0D22E36CE853159F4F0E04D
:105A7000E657FD4FE4910E2F10E09CE2C92E9FE007
:105A8000D92E29CE08E210E0A1E8CA2EAEE0DA2E27
:105A9000883109F420CE833249F4E8E8F2E0059138
:105AA000149189EAC82E80E1D82E15CE04EF11E0BA
:105AB000B1E4CB2EBEE0DB2E843209F40CCE00ED37
:105AC00017E0FDE3CF2EF8E0DF2E05CE0E94811C0B
:105AD0009093D9028093D80286ED93E09093DD05F0
