:100000000C9433060C947A060C947A060C94ED301A
:100010000C947A060C947A060C947A060C947A0660
:100020000C947A060C947A060C94B3190C946F19FC
:100030000C94E32D0C947A060C947A060C947A06B0
:100040000C947A060C947A060C947A060C947A0630
:100050000C947A060C94E31A0C947A060C947A06A3
:100060000C947A060C947A060C947A060C947A0610
:100070000C947A060C947A060C947A060C947A0600
:100080000C947A060C947A060C947A060C947A06F0
:100090000C947A060C947A060C947A060C947A06E0
:1000A0000C947A060C947A060C947A060501098061
:1000B000A101850319012AB700150126B700950192
:1000C00075108100C0050C0901A101850419012AE0
:1000D000A002150126A002950175108100C00660DE
:1000E000FF0961A1010962150026FF00952075082E
:1000F00081020963150026FF00952075089102C052
:1001000005010906A101050719E029E715002501E8
:10011000950875018102950175088101050719008F
:1001200029FF150026FF00950675088100050819AE
:10013000012905950575019102950175039101C08D
:10014000000101010101010101010202020202029A
:10015000020202030303030303030304040404046D
:100160000404050505050506060606060707070734
:100170000708080808090909090A0A0A0B0B0B0CE9
:100180000C0C0D0D0D0E0E0E0F0F0F101011111186
:100190001212131314141515161617171818191907
:1001A0001A1A1B1B1C1D1D1E1E1F2020212222236C
:1001B0002424252626272829292A2B2C2D2D2E2FAD
:1001C00030313232333435363738393A3B3C3D3EC4
:1001D0003F404142434445464748494A4C4D4E4FB3
:1001E00050515354555658595A5B5D5E5F61626475
:1001F000656668696B6C6D6F7072737577787A7B02
:100200007D7E8082838587888A8C8E8F9193959658
:10021000989A9C9EA0A2A3A5A7A9ABADAFB1B3B578
:10022000B7BABCBEC0C2C4C6C9CBCDCFD1D4D6D854
:10023000DBDDDFE2E4E7E9EBEEF0F3F5F8FAFDFFF2
:10024000FFAA7F55402223252628292A2C2D2F302E
:1002500032333536383A3B3D3E4042434547494AC2
:100260004C4E5051535557595A5C5E6062646668F3
:10027000696B6D6F71737577797B7D7F81838587FE
:10028000898A8C8E90929496989A9C9E9FA1A3A501
:10029000A7A8AAACAEAFB1B3B4B6B8B9BBBCBEBF29
:1002A000C1C2C3C5C6C7C9CACBCCCDCED0D1D2D2AC
:1002B000D3D4D5D6D7D7D8D9D9DADADBDBDBDCDCB7
:1002C000DCDCDCDDDDDDDDDCDCDCDCDCDBDBDBDA6F
:1002D000DAD9D9D8D7D7D6D5D4D3D2D2D1D0CECDDA
:1002E000CCCBCAC9C7C6C5C3C2C1BFBEBCBBB9B8E7
:1002F000B6B4B3B1AFAEACAAA8A7A5A3A19F9E9C6C
:100300009A98969492908E8C8A89878583817F7D36
:100310007B79777573716F6D6B6968666462605E17
:100320005C5A5957555351504E4C4A4947454342E0
:10033000403E3D3B3A3836353332302F2D2C2A297A
:10034000282625232235001E001F00200021002220
:1003500000290014001A000800150017002B0004E3
:10036000001600070009000A00E1001D001B00063E
:100370000019000500E300E200E00002512800A897
:10038000003500270026002500240023002A001342
:100390000012000C0018001C00340033000F000E87
:1003A000000D000B00E5003800370036001000118A
:1003B00000E700E600E40003512C00000035001EB9
:1003C000001F00200021002200290014001A00094B
:1003D0000013000A002B0004001500160017000788
:1003E00000E1001D001B00060019000500E300E20B
:1003F00000E00001002800A80035002700260025A5
:1004000000240023002A0033001C0018000F000DF8
:1004100000340012000C00080011000B00E5003849
:10042000003700360010000E00E700E600E400018F
:10043000002C00000001003A003B003C003D003E63
:100440000035001E001F0020002100220001001EB8
:10045000021F0220022102220201002E002D002E86
:10046000022F023002010001000100010001000121
:1004700000440043004200410040003F0045002787
:100480000026002500240023003102270226022531
:100490000224022302010031003302330030002F16
:1004A0000001000100010001000100010001000144
:1004B0000001000100010001000100490046006543
:1004C00000000000000100E200E000E1000000394F
:1004D0000001007A007B007C007D0000000100012B
:1004E0000001000100010001000100010001000104
:1004F00000010001002A0001000100520001004B30
:10050000002A004C004F00510050004E0001000036
:1005100000010000000100000001000100010001D5
:10052000000100010007087F0807003E5B4F5B3EAB
:10053000003E6B4F6B3E001C3E7C3E1C00183C7E18
:100540003C18001C577D571C001C5E7F5E1C000081
:10055000183C180000FFE7C3E7FF0000182418004C
:1005600000FFE7DBE7FF0030483A060E0026297956
:10057000292600407F05050700407F05253F005ADA
:100580003CE73C5A007F3E1C1C0800081C1C3E7FB8
:100590000014227F2214005F5F005F5F0006097F66
:1005A000017F00006689956A006060606060009469
:1005B000A2FFA2940008047E04080010207E2010F0
:1005C0000008082A1C0800081C2A0808001E101031
:1005D0001010000C1E0C1E0C0030383E3830000687
:1005E0000E3E0E060000000000000000005F00004C
:1005F00000000700070000147F147F1400242A7FE6
:100600002A12002313086462003649562050000065
:100610000807030000001C224100000041221C00CA
:10062000002A1C7F1C2A0008083E08080000807071
:100630003000000808080808000000606000002082
:1006400010080402003E5149453E0000427F400030
:10065000007249494946002141494D33001814129E
:100660007F10002745454539003C4A494931004142
:100670002111090700364949493600464949291ED2
:1006800000000014000000004034000000000814C6
:100690002241001414141414000041221408000212
:1006A00001590906003E415D594E007C1211127C31
:1006B000007F49494936003E41414122007F414186
:1006C000413E007F49494941007F09090901003E37
:1006D00041415173007F0808087F0000417F4100BD
:1006E000002040413F01007F08142241007F40402C
:1006F0004040007F021C027F007F0408107F003E04
:100700004141413E007F09090906003E4151215EF9
:10071000007F091929460026494949320003017F13
:100720000103003F4040403F001F2040201F003F8A
:100730004038403F00631408146300030478040346
:10074000006159494D4300007F41414100020408C6
:10075000102000004141417F0004020102040040DA
:1007600040404040000003070800002054547840F7
:10077000007F284444380038444444280038444426
:10078000287F0038545454180000087E09020018CD
:10079000A4A49C78007F080404780000447D4000F5
:1007A000002040403D00007F102844000000417FB1
:1007B0004000007C04780478007C08040478003849
:1007C0004444443800FC182424180018242418FC3D
:1007D000007C080404080048545454240004043FD6
:1007E0004424003C4040207C001C2040201C003C55
:1007F0004030403C004428102844004C9090907CAD
:10080000004464544C440000083641000000007766
:100810000000000041360800000201020402003C12
:100820002623263C00000000000000404040F0F875
:10083000F8FF38FFF8F83FF8F8FF38FFF8F8F04015
:10084000404000000000000080C0C0C0800000C028
:10085000C08000000080C0C000C0C0000080C0C0D8
:100860000000000000C0C0C0C0C000C0C000000048
:100870000000000000000000000000000000000078
:100880000000000000000000000000000000000068
:100890000000000000000000000000000000000058
:1008A00000000000C0F0F8FC3E1E06010000007FC2
:1008B0004141417F007F4141417F000080C0E07E97
:1008C0005B4F5BFEC00000C000DCD7DEDEDED7DCA5
:1008D00000C0000000000000000000000000000058
:1008E0000000000000000000000000494949FFFF2F
:1008F000FFFFE0DFBFBF00BFBFDFE0FFFFFFFF493B
:10090000494900000000001F3F6060E0BF1F007FFA
:100910007F071E381E077F7F007F7F0E1F3B7160A1
:1009200000000000007F7F0C0C0C007E7E007F7EAC
:100930000303007F7E03037E7E03037F7E000F3E62
:10094000703C063C703E0F00327B49493F7E007F81
:100950007E0303001E3F69696F260000000000004F
:1009600000000000030F1F3F3C7870600000007F14
:100970004141417F007F4141417F00307B7F7830A2
:10098000202030787F3B0003000F7F0F0F0F7F0F79
:100990000003000000000000000000000000000054
:1009A0000000000000000000000000010101070F2E
:1009B0000F7F0F7F0F0F7E0F0F7F0F7F0F0F07012E
:1009C0000101000000000000000000000101000023
:1009D0000000000000000000000000000000000017
:1009E0000000000000000000000000000000000007
:1009F00000000000000000000000000000000000F7
:100A000000000000000000000000000000000000E6
:100A100000000000000000000000000000000000D6
:100A200000000000000000000000000000000000C6
:100A300000000000000000000000000000000000B6
:100A400000000000000000000000000000000000A6
:100A50000000000000000000000000000000000096
:100A6000000000000000AF000000000000000000D7
:100A70000000000000000000000000000000000076
:100A800000000000000000000000007E0F00D4FF06
:100A9000FFFFC70000007800000000000000002AEF
:100AA0002B280000000000000000000000000000F3
:100AB000000029000000002C1E34202122243426AE
:100AC00027252E362D3738271E1F202122232425A7
:100AD000263333362E37381F0405060708090A0B5C
:100AE0000C0D0E0F101112131415161718191A1BCE
:100AF0001C1D2F3130232D350405060708090A0B6C
:100B00000C0D0E0F101112131415161718191A1BAD
:100B10001C1D2F3130354C00DA0281FFD9F1DB206A
:100B2000A4A62EAF00A0C000A1C800AED580A81F0B
:100B3000D300408D1420001E0F0500047F3F1F646A
:100B40003214643214783C1E1E140A054350534C70
:100B50004B000A0A00556E646566004C6F7765723B
:100B600000526169736500426173650A004C415926
:100B70004552000A0A004D6F640A00436C6D6B0019
:100B800051777274000A0A00808182838485868787
:100B900088898A8B8C8D8E8F9091929394A0A1A23C
:100BA000A3A4A5A6A7A8A9AAABACADAEAFB0B1B29D
:100BB000B3B4C0C1C2C3C4C5C6C7C8C9CACBCCCDF3
:100BC000CECFD0D1D2D3D40000AE09025B00030156
:100BD00000A0FA090400000103010100092111012C
:100BE00000012240000705810308000A09040100F2
:100BF0000203000000092111010001222200070563
:100C000082032000010705030320000109040200FC
:100C10000103000000092111010001223200070533
:100C2000840320000A120110010000000832FC8732
:100C3000020100010200010C0353006F0066006C0A
:100C400000650000001A034A006F0073006500662B
:100C5000004100640061006D00630069006B0000EA
:100C600000040309040011241FBECFEFDAE0DEBF49
:100C7000CDBF04B603FE27C0809141079091420783
:100C8000A0914307B09144078730904BA740B04BE9
:100C9000D1F410924107109242071092430710922C
:100CA000440714BE84B7877F84BF0FB6F894A89515
:100CB00080916000886180936000109260000FBE98
:100CC000E0E0F8E3099511E0A0E0B1E0EAEDF7E635
:100CD00002C005900D92A03DB107D9F727E0A0ED25
:100CE000B1E001C01D92A134B207E1F70E942D26A8
:100CF0000C949F330C940000E8EDF0E080818E7F2F
:100D000080831092E2001092DA001092E100A0EECF
:100D1000B0E08C9181608C9380818F77808319BC47
:100D2000A7EDB0E08C918E7F8C9380818F7E808345
:100D300010920C0708952091E4003091E50095E6AB
:100D4000A9012091EC00822F817020FF06C08091C4
:100D5000E80080FF06C080E008952091E80022FDB1
:100D60001AC080911907882389F0853089F0809115
:100D7000EB0085FD0FC02091E4003091E5004217A3
:100D80005307F9F29150E1F684E0089582E0089566
:100D900083E0089581E00895EF92FF920F931F93EF
:100DA000CF937C018B010E949B06C82F811117C035
:100DB0008091E80085FD0BC08091E8008E778093DC
:100DC000E8000E949B06882399F3C82F08C0F7010A
:100DD00081917F018093F1000150110949F78C2F17
:100DE000CF911F910F91FF90EF90089580911B0775
:100DF00087FF13C08091E80082FF06C08091E80061
:100E00008B778093E80004C0809119078111F2CF9D
:100E10000895809119078823D9F38091E80080FF15
:100E2000F8CF8091E8008E77ECCF982F9093E9006F
:100E3000242F762F50E0891731F07091EC0020912B
:100E4000ED005091F00021FD07C09F5F973071F7D2
:100E50008093E90081E008953091EB003E7F30936C
:100E6000EB003091ED003D7F3093ED003091EB00D1
:100E700031603093EB007093EC002093ED005093C1
:100E8000F0002091EE0027FDE0CF80E00895CF92A2
:100E9000DF92EF92FF920F931F93CF93DF93C8EDF2
:100EA000D0E088818F7E8883E7EDF0E080818160EB
:100EB000808384E082BF81E080930C0788818E7FED
:100EC000888302EE10E0F80110821092DA0081EEC1
:100ED000C82ED12CF601108288818F778883888173
:100EE0008068888388818F7D888319BC1092190758
:100EF00010921A07109218071092170790EEE92E19
:100F0000F12CF70180818B7F8083888181608883C9
:100F100042E060E080E00E941507F60180818E7F4C
:100F20008083F801808181608083808188608083F4
:100F3000F70180818E7F8083888180618883DF9143
:100F4000CF911F910F91FF90EF90DF90CF90089578
:100F5000FC01CB012091210730912207261737078A
:100F600090F0009729F42091E8002E772093E80074
:100F700040E0009751F4411108C08091E80082FFE1
:100F800031C080E00895C901F3CF209119072223D1
:100F9000A9F12530A9F12091E80023FD2DC0209171
:100FA000E80022FDEACF2091E80020FFE2CF309157
:100FB000F3002091F200009719F02830310558F025
:100FC00041E02830310509F040E02091E8002E771B
:100FD0002093E800CECF41914093F10001972F5F1D
:100FE0003F4FE9CF80911907882341F0853041F0C8
:100FF0008091E80083FFC1CF81E0089582E00895E9
:1010000083E00895089580E00895089580910E0783
:10101000089587E797E7909301088093000888E197
:101020009AE00FB6F894A895809360000FBE909355
:101030006000FFCF9C014FB7F89480919604909187
:101040009704A0919804B09199044FBF821B930B11
:101050000895CF93DF9300D000D0CDB7DEB78FB720
:10106000F8942091960430919704409198045091FF
:10107000990429833A834B835C838FBF69817A818A
:101080008B819C810F900F900F900F90DF91CF91EB
:1010900008959C01FC0132968FEF90E04191461734
:1010A00051F08F3F19F4411101C0892F9F5F963095
:1010B000A9F78F3F09F40895280F311D87FD3A9550
:1010C000F901628308958091910481111092910435
:1010D00008958091900490918F04892B90918E04B3
:1010E000892B8093D20190919104992391F0892BBF
:1010F0008093D20120E084ED91E0FC0130810196E3
:1011000031112F5F31E08A3D9307B9F721110E9419
:101110006308E091C304F091C404309731F0028079
:10112000F381E02D82ED91E009940895292F220F9B
:10113000E22FE90FEE0FE80F9E2F9770E695E695E8
:10114000E69585E0E89FF0011124EB59FB4F50E054
:1011500040E080E0219130E0092E02C036952795CD
:101160000A94E2F721703327042E01C0220F0A945B
:10117000EAF7822B4F5F5F4F4530510559F70895CD
:10118000292F220FE22FE90FEE0FE80F8E2F877025
:1011900041E001C0440F8A95EAF7E695E695E695A9
:1011A00085E0E89FF0011124EB59FB4F30E020E08F
:1011B00070E05191DF011197CB01022E02C096958C
:1011C00087950A94E2F78170819585278423852786
:1011D0008C932F5F3F4F2530310559F7089580914B
:1011E000640490913304981301C008958F5F877051
:1011F000FACF882341F080959091900489238093C1
:1012000090040C9469080895882339F09091900413
:10121000892B809390040C94690808950C942908F4
:1012200020912A0430912B042817390771F09093EC
:101230002B0480932A04E091C304F091C4043097F6
:1012400021F00084F185E02D09940895209128046F
:10125000309129042817390771F09093290480935D
:101260002804E091C304F091C404309721F0068073
:10127000F781E02D0994089590E080E00E9426090E
:1012800090E080E00E94100910928F0410928E046A
:101290000C946908609326077093270780932807AA
:1012A000909329070C943C09CF93DF9300D000D092
:1012B000CDB7DEB78091260790912707A091280728
:1012C000B0912907AC01BD014670552766277727E5
:1012D0009C01463051056105710591F4AD0128600E
:1012E00029833A834B835C8369817A818B819C81DA
:1012F0000F900F900F900F90DF91CF910C944A09AF
:10130000AD01277FEDCF0F931F93CF93DF9300D0D5
:1013100000D0CDB7DEB741E050E060E070E004C03F
:10132000440F551F661F771F8A95D2F74095509539
:10133000609570958091260790912707A0912807C6
:10134000B09129078A019B01082319232A233B23F3
:1013500009831A832B833C83C901B8010F900F9036
:101360000F900F90DF91CF911F910F910C944A092C
:1013700090918D048095892380938D04282F277068
:1013800039F4282F082E000C330B9217130621F482
:1013900090919F0492FF07C08595859585950E9441
:1013A000830910928D0408950F931F93CF93DF93B9
:1013B00000D000D0CDB7DEB741E050E060E070E093
:1013C00004C0440F551F661F771F8A95D2F780917E
:1013D000260790912707A0912807B09129078A0135
:1013E0009B01082B192B2A2B3B2B09831A832B8358
:1013F0003C83C901B8010F900F900F900F90DF91BF
:10140000CF911F910F910C944A09609392047093AD
:10141000930480939404909395040C943C0988233E
:10142000B1F19CEF980F913A70F4E4EDF1E09191F5
:10143000891303C0DF0111971C9241E0EA3DF407D4
:10144000B1F70C94690890E2980F983088F487708F
:1014500021E030E0A90102C0440F551F8A95E2F750
:10146000CA01809590919004892380939004E9CFDC
:101470009BE5980F933020F490E080E00C942609CF
:10148000885A873120F490E080E00C941009089588
:10149000CF93C82F882309F44DC08CEF8C0F813A6D
:1014A000F8F4E4EDF1E08AED91E0DF012D91C2174F
:1014B00059F08A179B07D1F76C2F82ED91E00E94BB
:1014C0004908CF910C9469082191C21303C0DF0130
:1014D00011971C928E179F07B9F70E946908ECCFED
:1014E00080E28C0F883068F4C77021E030E001C0E2
:1014F000220FCA95EAF780919004822B8093900482
:10150000E0CF8BE58C0F833038F42C2F2452330B33
:10151000C901CF910C942609C85AC73158F4EC2F51
:10152000F0E0EE0FFF1FE559FE4F80819181CF91D2
:101530000C941009CF910895E091C304F091C40474
:10154000309721F00190F081E02D099480E008951A
:10155000FA0181110994FB01FDCFE8EBF4E011825F
:1015600082818460828308958091FD06982F9E7FFA
:1015700029F4817082608093FD0608958635E8F332
:1015800081708465F8CF8F929F92AF92BF92CF9275
:10159000DF92EF92FF920F931F93CF93DF93D82E9A
:1015A000C62EE901E42FF0E0E05CFE4F611113C0AC
:1015B0004491942FE42FE98348839A83DF91CF915C
:1015C0001F910F91FF90EF90DF90CF90BF90AF9061
:1015D0009F908F900895062F10E0E49186E0D89EAA
:1015E000700111242FEF30E0C701B9010E941532BC
:1015F0008D2D90E0880F991FF5E5F69FA001F79FCC
:10160000500D1124841B950B982F990F890FA90158
:10161000401B510BE49FD001E59FB00D11244B2FCF
:10162000C89E60011124CD2CDD245901AC18BD08E1
:10163000EA9D6001EB9DD00C11249D2D4901881A73
:101640009108809E5001819EB00C909EB00C112498
:10165000AB2CBB242A193B09E29F8001E39F100DAC
:10166000112463307105D1F08CEFE81683E0F806A1
:1016700070F461307105B1F062307105B9F08FEF2F
:10168000E816F10408F097CF9B2F412F94CF6430D8
:10169000710579F066307105B9F38DCF4D2D9E2F10
:1016A000EB2F89CF4E2FED2D9B2F85CF912F4E2FD6
:1016B000F7CF9E2FE12F7FCFF894E82FE295EF70C0
:1016C000F0E041A18F7021E030E0B90102C0660F67
:1016D000771F8A95E2F7CB01962F9095942391A3DB
:1016E00092A1892B82A37894089590919E0492FFF1
:1016F00006C0282F28712830F9F4877F846093FF73
:1017000006C0282F28712831F1F4877E846120914A
:101710009F0420FF06C0382F38713830D9F4877FF6
:10172000816021FF06C0282F28712831D1F4877EDF
:10173000816194FD877E0895282F24712430F9F665
:101740008B7F8860DCCF282F2471243101F78B7EBA
:101750008861DDCF382F3171313019F78E7F886085
:10176000E0CF282F2171213121F78E7E8861E1CFD2
:101770000F931F93462F572FBC01CB01AA27BB27DE
:101780000097A105B105E9F1AC01BD0180E1052F8C
:10179000162F272F3327011511052105310519F0C3
:1017A000885FB901A8018A019B01F4E0369527956D
:1017B00017950795FA95D1F7011511052105310502
:1017C00019F08C5FB901A8018A019B01E2E036950E
:1017D000279517950795EA95D1F70115110521056C
:1017E000310519F08E5FB901A80176956795579577
:1017F0004795452B462B472B09F08F5F1F910F9183
:10180000089580E0C4CFCF92DF92EF92FF920F93C2
:101810001F93CF93DF936C017B0164E670E088E750
:101820000E944A2FEC0197FD12C010E000E0F60183
:10183000E00FF11F849164E670E00E94A62FEC0196
:10184000892B29F40F5F1F4F0E151F0581F70E948A
:101850003330CE01DF91CF911F910F91FF90EF9028
:10186000DF90CF900895CF93DF9300D000D00F92F8
:10187000CDB7DEB78091ED068D838091F006882389
:10188000F1F00E942908DC01CB01805A9541AF4F4D
:10189000BF4F8093E9069093EA06A093EB06B093BE
:1018A000EC068D81811108C062E070E085E69AE067
:1018B0000E94030C892B61F08091ED068D838D8150
:1018C0000F900F900F900F900F90DF91CF91089590
:1018D00081E08093ED06F0CFCF9384E090E00E940A
:1018E000F432C82F82E290E00E94F432982F8C2FBD
:1018F000CF9108950F931F93CF93DF93C42FD0E020
:10190000CC0FDD1F2CE0629FC00DD11D112438E7E4
:10191000839FC00DD11D1124CE0187960E94F43201
:10192000082F10E0102F0027CE0188960E94F43275
:101930009801282BC901DF91CF911F910F91089534
:10194000462F672F843030F47A3020F4463010F47C
:101950000C947A0C90E080E00895CF93DF930E947E
:10196000A00CEC01803E910509F45BC070F5813359
:10197000910509F49EC090F48932910509F492C052
:101980008A9709F49DC0C430D10550F591E080E0FC
:10199000219709F090E0C92FD82F22C089339105F3
:1019A000C9F182389105B1F1C59709F474C0CF3BF4
:1019B000D10508F08CC0C83AD10508F00FC1C53A6E
:1019C000D10508F3A497D0640BC0843E910509F4B7
:1019D00047C050F4823E910599F1833E9105A9F1EB
:1019E000CE01DF91CF910895863E910509F443C061
:1019F000873E910509F444C0811522E5920708F05D
:101A00009BC0811531E5930790F2D82FCC27C16F89
:101A1000D06AE6CF80919E04837011F3C0EED0E0CF
:101A2000DFCF80919E0480FD0FC190919F0490FFB5
:101A3000D7CFC3EED0E084FFD3CFD0E0C0E0D0CF8B
:101A400080919E0482FDF5CFCBCF80919E0482FDD4
:101A5000FEC090919F0490FDE1CF84FFC1CFEDCFF8
:101A600080919F0481FFBCCF80919E04C7EED0E09F
:101A700084FDE3CFB5CF80919E0483FDF7CFB0CF37
:101A800080919E0483FDE6C090919F0491FFE5CF75
:101A9000C4EED0E0A5CF80919E0485FFA1CFC9E21E
:101AA000D0E09ECF80919E0485FF9ACFC5E3D0E021
:101AB00097CF80919E0486FF93CFCAE2D0E090CF6B
:101AC00080919E0486FF8CCFC1E3D0E089CFC11501
:101AD00040E5D407A0F4C11580E4D80708F089C018
:101AE000C83ED10528F4C03ED10508F4A6CF78CF72
:101AF000CE019A9581159F4108F472CF9ECFCE01F9
:101B0000F4E096958795FA95E1F783702C2F26954A
:101B10002695237040E2249F90011124382B8C2FAE
:101B20008370C1E0D0E002C0CC0FDD1F8A95E2F7E0
:101B3000C22BD32BDC6854CFC11586E5D80730F50E
:101B4000C11595E5D90708F066C0C11524E5D2078F
:101B5000C0F49C2F969596959E0123703327C1154E
:101B6000D34508F049C0C1E0D0E002C0CC0FDD1F72
:101B70002A95E2F720E2929FC0011124C82BD92BAD
:101B8000D9CFDC2FCC27C46FD06A2ACFC1153AE554
:101B9000D30788F4C11549E5D40708F047C0CE0142
:101BA00098558F3F910511F008F047CFDC2FCC27D7
:101BB000C06FD06A15CFCE0190568115904208F0C3
:101BC0003CCF8D2F8F710E94750B90E0982F882746
:101BD00088279F719C012C2BE90126C0C85AD0E0B0
:101BE000CC0FDD1FC559DE4F0990D881C02DD464BC
:101BF000F7CEDF70D06AF4CEC1E0D0E002C0CC0FE7
:101C0000DD1F2A95E2F730E2939FC0011124C82B13
:101C1000D92BDA68E5CE8C2F0E94750BC82FD0E047
:101C2000DC2FCC27CC27DF71D062DACE8C2F8F70DF
:101C30000E94750B34E0D695C7953A95E1F7CF70C1
:101C4000DC2FC82FD069CCCEC9E3D0E0C9CEC2EE1C
:101C5000D0E0C6CEC6EED0E0C3CEBF92CF92DF9228
:101C6000EF92FF920F931F93CF93DF938C01C0905D
:101C70002607D0902707E0902807F0902907809149
:101C8000920490919304A0919404B0919504C82A71
:101C9000D92AEA2AFB2ACFE1D0E0BC2ED701C6011F
:101CA0000C2E04C0B695A795979587950A94D2F700
:101CB00080FD0EC0219788F7B12C8B2DDF91CF913D
:101CC0001F910F91FF90EF90DF90CF90BF900895FC
:101CD000B8018C2F0E94AD0C019761F3EECFCF932A
:101CE000DF93D82FC92F0E942D0E6D2F7C2FDF91EF
:101CF000CF910C94AD0C0E946F0E282F892F8F70FE
:101D0000392F32953F70903C80F43A30B0F4343043
:101D100020F4323090F480E008953630E1F781E02D
:101D2000283E88F0213FB9F70EC03C3011F03F301B
:101D300091F7869586958695089581E0203F39F044
:101D400018F4283E40F70895243F29F7FCCF089562
:101D50006F927F928F929F92AF92BF92CF92DF92BB
:101D6000EF92FF920F931F93CF93DF93D12CC12C4F
:101D70003BEAA32EB12CE501C857D10936011BC09F
:101D8000F70185909490692DC8010E940833682D51
:101D9000C80101960E94083322E0E20EF11C0E5F9A
:101DA0001F4FC017D10761F736E0630E711C2C96E8
:101DB000CA15DB0559F0C301880F991F9C012B5BE5
:101DC0003C4F79018E010C501109DACFCE018858B1
:101DD0009F4F5C019CE3C90ED11CC331D24059F620
:101DE000DF91CF911F910F91FF90EF90DF90CF90F7
:101DF000BF90AF909F908F907F906F900895CF93FA
:101E0000C0919F04C2FB992790F9981781F080FB3D
:101E1000C2F9C0939F0460919E0484E090E00E9408
:101E200008336C2F82E290E0CF910C940833CF916D
:101E30000895CF93DF93C7E0D2E060E0CE010E9427
:101E400008332196C11584E0D807B9F7DF91CF9107
:101E5000089510929004E4EDF1E086E0DF011D9218
:101E60008A95E9F70C943C091F93CF93DF93CDB784
:101E7000DEB7AA970FB6F894DEBF0FBECDBF8BE1D9
:101E800097E0FC0101962091F100208327E0833246
:101E90009207B9F780911C07893009F456C0C8F43D
:101EA000823009F4B2C0833009F481C0813071F10D
:101EB0008091E80083FF35C180911B0790911C073A
:101EC0009A3008F02EC1E92FF0E0EF55FC4C0C944D
:101ED0003D328A3009F488C08B3051F780911B075E
:101EE000813231F780911F0790912007892B01F7EC
:101EF0008091E800877F8093E8000E94F606809139
:101F00001D0780932B010E94290FD2CF80911B07C0
:101F1000813A71F68091E800877F8093E800809194
:101F20001F0790912007892B61F468E08FE097E00C
:101F300070E00E94A8078091E8008B778093E8000A
:101F4000B7CF60E090E080E0F3CF80911B07813253
:101F500009F0AECF80911F07909120078D7F892BCC
:101F600009F0A6CF8091E800877F8093E8008091F8
:101F7000E80082FF17C09091F3008091F200029771
:101F800029F48091F1008B7F813021F48091F10060
:101F900080930E078091E8008B778093E8000E9481
:101FA000F60686CF809119078111E1CF81CF80910C
:101FB0001B07813A09F07CCF80911F079091200781
:101FC000892B09F075CF8091E800877F8093E80026
:101FD0008091E80080FFFCCF80912B018093F1007D
:101FE0008091E8008E77D9CF80911B07813209F06C
:101FF0005FCF8091E800877F8093E8000E94F6061B
:1020000080911E0780930D0753CF80911B07813A63
:1020100009F04ECF8091E800877F8093E80080919F
:10202000E80080FFFCCF80910D07D8CF803899F071
:10203000823809F076C080911F078F70873008F0D2
:1020400070C08093E9008091EB0085FB882780F9C0
:102050001092E90006C0809117079091180791111E
:1020600082609091E800977F9093E8008093F10060
:102070001092F1008091E8008E77B4C1882309F4B2
:10208000A1C1823009F04DC080911D078111A5C109
:1020900080911F078F702FEF280F263008F041C066
:1020A0008093E9002091EB0020FF97C1933031F439
:1020B0008091EB0080628093EB008FC19091EB00E8
:1020C00090619093EB0021E030E001C0220F8A95EF
:1020D000EAF72093EA001092EA008091EB00886012
:1020E000EACF81111EC010911D071F778091E30078
:1020F0008078812B8093E3008091E800877F809334
:10210000E8000E94F6068091E80080FFFCCF8091F5
:10211000E30080688093E30082E0111183E0809304
:1021200019078091E80083FF0AC08091E800877F4B
:102130008093E8008091EB0080628093EB00AA9688
:102140000FB6F894DEBF0FBECDBFDF91CF911F91C8
:1021500008958058823028F740911D0750911E073E
:102160004C3D83E05807A1F583E08A838AE28983A6
:102170004FB7F894DE01139620E03EE051E2E32FE2
:10218000F0E050935700E49120FF03C0E295EF7018
:102190003F5FEF708E2F90E0EA30C0F0C7968D93CE
:1021A0009D932F5F243159F74FBF8091E800877FBF
:1021B0008093E8006AE270E0CE0101960E94A807D1
:1021C0008091E8008B778093E800ABCFC096E7CF93
:1021D00080911F0790912007252F33272330310549
:1021E00009F44AC078F52130310509F479C08BE54E
:1021F00090E0EAECFBE02230310509F092CF20912B
:10220000E800277F2093E8002091210730912207E2
:102210008217930708F49C0140E02115310509F06D
:1022200064C0411162C08091E80082FDC9CF8091F5
:102230001907882329F2853019F28091E80083FF7D
:10224000F2CFBECF2132310509F43BC02232310535
:1022500009F067CF8330910508F063CFFC01EE0FE2
:10226000FF1FEC53FE4F0190F081E02D8F539E4FE6
:10227000DC018C9190E011C0CA019927413089F0AE
:1022800082309105B1F0892B09F04BCFE1E6FCE0FB
:10229000E4918E2F90E0E1E6FCE0009709F441CF55
:1022A000AECFE5E4FCE0E4918E2F90E0E5E4FCE0C5
:1022B000F4CFE7E3FCE0E4918E2F90E0E7E3FCE06D
:1022C000ECCF8330910508F02CCF880F991FFC01CB
:1022D000E653FE4F0190F081E02D89E090E08FCF32
:1022E00082E190E0E5E2FCE08ACF80911907882343
:1022F00009F466CF853009F463CF8091E80083FD4F
:102300005FCF8091E80082FD8ECF8091E80080FF52
:1023100084CF9091F3008091F2002115310519F0DE
:102320008830910550F041E0089709F040E0809135
:10233000E8008E778093E80070CF44914093F100DD
:102340003196215031090196E8CF803809F0E9CE65
:102350008091E800877F8093E80080911A0780933E
:10236000F10088CE8111DDCE10911D07123008F0EA
:10237000D8CE8091E800877F8093E80010931A07F9
:102380000E94F606112311F084E005C08091E3005D
:1023900087FDFACF81E08093190742E061EC81E08C
:1023A0000E94150742E261EC84E00E94150742E2B8
:1023B00061EC82E00E94150742E260EC83E00E943B
:1023C0001507AFCE80911D07813009F0AACE81E0BC
:1023D000933009F080E0809318071092E900809113
:1023E000E800877F8093E8000E94F6069ACECF939C
:1023F000DF9300D00F92CDB7DEB7909119079430DC
:1024000011F589836A837B839093E9008FEF909124
:10241000E800815095FD06C095ED9A95F1F7000012
:102420008111F5CF8091E80085FF0DC050E040E0BC
:1024300063E070E0CE0101960E94CC068091E80036
:102440008E778093E8000F900F900F90DF91CF91DF
:102450000895BC0184E00C94F711BC0183E00C9456
:10246000F711CF93DF93D82FC92F81E08093E90034
:102470008FEF9091E800815095FD06C095ED9A95FB
:10248000F1F700008111F5CF8091E80085FF16C0BB
:1024900050E040E068E070E08D2F9C2F0E94CC0659
:1024A0008091E8008E778093E80088E0ED2FFC2F84
:1024B000AFE0B7E001900D928A95E1F7DF91CF91FF
:1024C00008950F931F93CF93C82F0AE010E089332C
:1024D00011F400E510E08C2F0E94480A8FE99FE07C
:1024E0000197F1F700C0000001501109B9F78C2FD6
:1024F000CF911F910F910C940F0A6091130180915D
:10250000FD0680FF20C08091120143E0849FC0013E
:1025100011248E519E4F539A2BB1277F3BB13860C7
:102520005FB7F894FC01649FE00DF11D1124BF0119
:1025300068177907D1F45FBF8FE594E00197F1F751
:1025400000C000000895809114019091150123E0CE
:10255000829FF0011124EE51FE4F8917A0F61182DF
:10256000108212828F5F3396F8CFFC014191CF0128
:10257000E8E03BB9000000C047FF2BB9440F000062
:1025800000C000C000C02BB900C0EA9591F7D0CFC1
:102590004F925F926F927F928F929F92AF92BF9273
:1025A000CF92DF92EF92FF920F931F93CF93DF931F
:1025B000FC016280448081E08483E5E4F2E0749071
:1025C000E4ECF2E0E491812C75E0972EF2E0CF2E5E
:1025D000DD24D394AA24AA94B12C55245A94E71943
:1025E0000E2F10E080911601881690F0DF91CF91A8
:1025F0001F910F91FF90EF90DF90CF90BF90AF9021
:102600009F908F907F906F905F904F900C947D1271
:10261000E82CF12C82E0861568F09E9CF0019F9CCE
:10262000F00D1124E654FD4F8091FE0680838091C9
:10263000FF068183411023C09E9CF0019F9CF00DFA
:102640001124E654FD4F1382128220911401C70118
:10265000820F911D9C01220F331F280F391F2E510D
:102660003E4F9E9CF0019F9CF00D1124E654FD4FBF
:102670004281618180810E94C30A8394B3CF9E9C72
:10268000E0019F9CD00D1124C654DD4F8B8188231F
:10269000E9F081508B83859DC00111246C8170E02D
:1026A0000E941532FB01FF27EB5BFD4F8491E82F61
:1026B000E719E59DC0011124B8010E9415328091EF
:1026C0000007689FB00111247A83BFCF0E94C132F6
:1026D000AC0190910007969591589C9D90019D9D0D
:1026E000300D1124232F3327421753070CF0ADCFA1
:1026F00082E0861588F40E94C132B5010E94293219
:1027000088830E94C1322091FF062695622F70E0D7
:102710000E942932280F29839E9CF0019F9CF00D76
:102720001124E654FD4F128280910007893C58F035
:1027300088EC9E9CF0019F9CF00D1124E654FD4F07
:102740008483838382CF8431A0F784E1F2CFEF9238
:10275000FF921F93CF93DF93EC0110E0EE24EA94F5
:10276000F12C60911601161770F00E947D129A816B
:102770008C8190FF27C08F5F8C83DF91CF911F9159
:10278000FF90EF90089520911401422F410F55279B
:10279000551FCA019A01220F331F280F391F2E51CE
:1027A0003E4F70E0C7010E942932962F8C814091E4
:1027B00000076091FF06199F800D11240E94C30A33
:1027C0001F5FCFCF8150D8CF9F92AF92BF92CF9251
:1027D000DF92EF92FF920F931F93CF93DF93EC0161
:1027E0008A81BB24BA9480FD02C0BB24B394A0901C
:1027F00016018C81811109C081E0B81225C08FEFCC
:102800008A0D8093DF0181E08C83F12CE12CEA14A6
:10281000F0F00E947D128091DF0191E0B9125EC05C
:10282000811157C08091160181508093DF011C8275
:10283000DF91CF911F910F91FF90EF90DF90CF909C
:10284000BF90AF909F9008951092DF01DCCF009170
:1028500014010E0D1F2D111DC801880F991F080F9F
:10286000191F0E511E4FF80111821082128234E09E
:10287000C32ED12C912C8091DF01890D89342CF14C
:1028800068E40E940732892F082E000C990B8E15E0
:102890009F0591F4809100078C9DA0018D9D500DA6
:1028A0001124559547955595479598016091FF06D8
:1028B0008091FE060E94C30A9B0CF1E0CF1AD1085A
:1028C000D1F68FEFE81AF80AA2CF87FFDDCF8A0D85
:1028D000DBCF81508093DF01BC82AACF90E00196CC
:1028E0006091160170E00E9429328093DF018C8391
:1028F0009FCFCF92DF92FF920F931F93CF93DF93DF
:10290000EC018C81811109C081E08C831092E0017F
:1029100092E09093100180930F0110911401909117
:10292000150183E0189FF0011124EE51FE4F812F15
:10293000891778F100E093E0F92E609116010617EF
:1029400070F10E947D1280910F012091E001280F0B
:102950002093E00190911001980F909310011916A7
:1029600054F4022E000C330B409116014150550BCC
:102970002417350734F0819580930F01813009F4D5
:102980001C82DF91CF911F910F91FF90DF90CF902C
:1029900008951182108212828F5F3396C9CFC02EA4
:1029A000D12C70E0C6010E942932810F482F50E0DF
:1029B0002091E001022E000C330BC216D306BCF0AE
:1029C00020911001022E000C330B2C153D057CF0DC
:1029D0008F9D900111242E513E4F40910007609130
:1029E000FF068091FE060E94C30A0F5FA6CFFA0180
:1029F000EE0FFF1FE40FF51FEE51FE4F1182108204
:102A00001282F3CFEF92FF920F931F93CF93DF9336
:102A1000CDB7DEB72E970FB6F894DEBF0FBECDBF91
:102A20008D879E87AD85BE8514961C91212F30E041
:102A3000D9010E9490339B01AC010E945B336983F2
:102A40007A838B839C83E0E2F0E0E11BF109A5E54A
:102A5000B0E09B01AC010E945B3369877A878B876A
:102A60009C879F01DF010E944A326D837E838F83A2
:102A700098879B01AC010E9466339B01AC01698180
:102A80007A818B819C81260F371F481F591F6985CA
:102A90007A858B859C850E946E33F22E822F90E082
:102AA00079E2721788F183E0289F9001112435950F
:102AB0002795122F109500E085E5E82EEF188091FC
:102AC0001601081780F10E947D12AD85BE8514960F
:102AD0009C9181E0992319F0903219F48FEF809343
:102AE000110180911101890FED85FE8584832E9659
:102AF0000FB6F894DEBF0FBECDBFDF91CF911F910F
:102B00000F91FF90EF90089525E530E0D901A81BC3
:102B1000B90B9D01220F331F2A0F3B1F37FFC7CF71
:102B20002F5F3F4FC4CF8E2D01FD8F2D20911401BB
:102B3000E22FE00FFF27FF1F9F01220F331F2E0FF1
:102B40003F1F2E513E4F412F6091FF060E94C30A46
:102B50000F5FB5CF0F931F93CF93DF93EC0110E07E
:102B600000E0909116019017110609F06CF40E9494
:102B70007D128C8190E00196817099278C83DF9182
:102B8000CF911F910F91089520911401A801420F38
:102B9000511D9A01220F331F240F351F2E513E4F16
:102BA0004C816091FF068091FE0696959017110664
:102BB00051F04CF0442349F0409100070E94C30AB1
:102BC0000F5F1F4FCECF4423B9F340E0F7CF909172
:102BD000FD0690FF14C0909114012091150133E07F
:102BE000939FF0011124EE51FE4F921710F00C94B8
:102BF0007D128183608342839F5F3396F6CF089571
:102C00000F931F93CF93DF9300D00F92CDB7DEB712
:102C10008C018091E10181110AC09E012F5F3F4F1D
:102C20004FEF6FEF0E94C30A8A818093E101F801A0
:102C30006481613049F06230F1F08091E10140E05F
:102C4000662331F040E019C06091E10140E080E08E
:102C50000E94E715F801848190E0019663E070E03E
:102C60000E94293284830F900F900F90DF91CF91B3
:102C70001F910F9108954091E10180E060E0E8CF5D
:102C8000CF93DF9300D00F92CDB7DEB79091FD06C2
:102C900090FF0AC09E012F5F3F4F0E94C30A4B81E5
:102CA00069818A810E94E7150F900F900F90DF9144
:102CB000CF910895CF93DF93EC01EC81F0E0EB5BD3
:102CC000FD4F4491EDEFF6E0628181810E94401654
:102CD0008C818F5F8C83DF91CF910895CF93DF93A9
:102CE000EC01EDEFF6E0438162818C810E94401699
:102CF0008C818F5F8C83DF91CF910895EDEFF6E0AB
:102D000080818E7F80830E94AD0AE8EBF4E08281AF
:102D1000816082832FEF80E792E0215080409040D5
:102D2000E1F700C000000C947D128091DE0181115A
:102D300010C08091D80080618093D8008AE18A9584
:102D4000F1F700C08091D90080FF0AC081E0809334
:102D5000DE0181E09091DE01913009F080E008957C
:102D600082E08093DE010E947C0610921907F1CF69
:102D70006AEE7EEF90E080E00E94263360E082E021
:102D800090E00E94083360E083E090E00E94083306
:102D9000109292041092930410929404109295044D
:102DA00060E084E090E00E94083360E082E290E01E
:102DB0000E94083360E085E090E00E94083360E004
:102DC00086E090E00E9408336FEF87E090E00E9479
:102DD000083340E050E0BA0188E090E00E941A33E6
:102DE00060E08DE090E00E94083340E050E0BA01DE
:102DF00088E190E00E941A3360E087E190E00E9451
:102E0000083340E050E0BA018CE190E00E941A33B0
:102E100070E060E080E290E00E94263340E050E005
:102E2000BA0188E190E00E941A3340E050E0BA0114
:102E30008FE090E00E941A3340E050E0BA0183E155
:102E400090E00C941A330F931F93CF93DF938B0171
:102E5000D82FC92F0E94B40AA8016D2F7C2F88E0BB
:102E600090E0DF91CF911F910F910C941A33AF92A4
:102E7000BF92CF92DF92EF92FF920F931F93CF9367
:102E8000DF9300D000D000D00F92CDB7DEB7182F5F
:102E9000F62E042FD22E9091FD0690FF3DC0E92F13
:102EA000E695AE2FB0E0A05CBE4F8C918093B80445
:102EB0009E7F923009F041C09E012F5F3F4F812FCE
:102EC0000E94C30A4B8169818A810E94E715809123
:102ED000FE06811308C08091FF068F1104C0809107
:102EE0000007801729F08091BA0482608093BA04A9
:102EF0001093FE06F092FF0600930007DD2061F0BC
:102F00008091FD069091FE06A091FF06B09100070A
:102F1000BC01CD010E94231727960FB6F894DEBF9F
:102F20000FBECDBFDF91CF911F910F91FF90EF901A
:102F3000DF90CF90BF90AF900895823019F4009148
:102F40000007C5CF863019F41091FE06C0CF893036
:102F5000D9F3893109F0BBCFE9518E2F8170C82E8A
:102F6000E695F0E0E05CFD4FA590B490E12CBB2429
:102F700060911601E61618F00E947D12A8CF2E2D42
:102F800030E0EA9CC001EB9C900D112470E00E949F
:102F90001532812FC11013C0860F40911401420FCA
:102FA000532F511D9A01220F331F240F351F2E510D
:102FB0003E4F402F6F2D0E94C30AE394D9CF861B4A
:102FC000ECCFEDEFF6E0438121E1421B08F440E055
:102FD00021E0628181810C943717EDEFF6E04381A7
:102FE00021E1420F08F44FEF21E0628181810C94CE
:102FF0003717EDEFF6E0628121E1621B08F460E033
:1030000021E0438181810C943717EDEFF6E0628176
:1030100021E1620F08F46FEF21E0438181810C947C
:103020003717EDEFF6E0818121E04381628188501E
:103030000C943717EDEFF6E0818121E04381628146
:10304000885F0C943717CF93DF9300D000D0CDB7B3
:10305000DEB780910107882319F081508093010722
:103060008091FD069091FE06A091FF06B0910007A9
:1030700089839A83AB83BC83BC01CD010F900F90F1
:103080000F900F90DF91CF910C942317CF93DF9384
:1030900000D000D0CDB7DEB780910107833018F49F
:1030A0008F5F809301078091FD069091FE06A091AD
:1030B000FF06B091000789839A83AB83BC83BC0170
:1030C000CD010F900F900F900F90DF91CF910C9446
:1030D0002317CF93DF9300D000D0CDB7DEB7EDEF4D
:1030E000F6E083E0808311828FEF828383831482F2
:1030F000A8EBB4E012968C911297836012968C9391
:1031000080819181A281B38189839A83AB83BC83BF
:10311000BC01CD010F900F900F900F90DF91CF91D8
:103120000C9423171F93CF93DF93982F162F81E0D2
:103130009A3019F09D3031F480E0DF91CF911F91EA
:103140000C943719C091C004D091C10486E0FE01EF
:10315000A2E2B4E001900D928A95E1F7903EA8F1C9
:1031600086E0FE0111928A95E9F7C091C004D091E2
:10317000C104111136C046E050E0BE0182E294E085
:103180000E94E7329E01255E3440892BA9F52A5F13
:103190003F4F4091C204642F70E0C9010E94153274
:1031A000481B463010F4240F311D211572E03707FB
:1031B00010F030E020E02B513B4F3093C1042093BE
:1031C000C004DF91CF911F910895F6E09F9FB00159
:1031D00011246B5D7A4F46E050E0CE010E94D1325F
:1031E000C4CF9E012A5F3F4FFE012E173F0719F201
:1031F000808180958193F9CFC90145E096958795A7
:103200004A95E1F741E050E0BA0102C0660F771F2E
:103210008A95E2F7CB016091E7067091E806862B6C
:10322000972BB9016B5F7F4FE5E076956795EA953F
:10323000E1F702C0440F551F6A95E2F7842B952BE6
:103240009093E8068093E706A2CF1F93CF93DF9376
:10325000EC01162FFE018491811104C0DF91CF9102
:103260001F910895612F0E9492182196F3CFCF935A
:10327000382FE091C004F091C104E55EF440209144
:10328000C204622F70E0CF010E941532281B822FEA
:10329000332369F066E00E94FB31C82FC15010F45F
:1032A000CF91089560E080E20E949218F7CF9F01CD
:1032B000280F311D2115324018F080E0F0E0E0E0E9
:1032C0008E0F9F2F911D8B519B4F9093C104809324
:1032D000C004E6CF0E94251981E00C9437191F9293
:1032E0000F920FB60F9211242F933F934F935F933A
:1032F0006F937F938F939F93AF93BF93CF93DF93FE
:10330000EF93FF93D091E900DF708091EC00C82F1C
:10331000C17080FDC0E81092E9008091F000877FC5
:103320008093F00078940E94340F1092E90080910D
:10333000F00088608093F000CD2BCF70C093E9003F
:10334000FF91EF91DF91CF91BF91AF919F918F91BD
:103350007F916F915F914F913F912F910F900FBE91
:103360000F901F9018951F920F920FB60F92112475
:103370002F933F934F935F936F937F938F939F937D
:10338000AF93BF93EF93FF938091E10082FF09C059
:103390008091E20082FF05C08091E1008B7F8093E5
:1033A000E1008091DA0080FF24C08091D80080FF86
:1033B00020C08091DA008E7F8093DA008091D9005E
:1033C00080FF99C080E189BD82E189BD09B400FE1A
:1033D000FDCF81E08093190780910C07811109C00E
:1033E0000E947C060E9447078091E20084608093DF
:1033F000E2008091E10080FF17C08091E20080FF31
:1034000013C08091E2008E7F8093E2008091E20001
:1034100080618093E2008091D80080628093D80020
:1034200019BC85E0809319078091E10084FF27C0D3
:103430008091E20084FF23C080E189BD82E189BDE3
:1034400009B400FEFDCF8091D8008F7D8093D80015
:103450008091E1008F7E8093E1008091E2008F7E79
:103460008093E2008091E20081608093E20080918D
:103470001A07882309F445C084E0809319078091D6
:10348000E10083FF27C08091E20083FF23C0809189
:10349000E100877F8093E10082E08093190710921A
:1034A0001A078091E1008E7F8093E1008091E20015
:1034B0008E7F8093E2008091E20080618093E20041
:1034C00042E060E080E00E9415078091F000886093
:1034D0008093F000FF91EF91BF91AF919F918F91F9
:1034E0007F916F915F914F913F912F910F900FBE00
:1034F0000F901F90189519BC1092190710920C0785
:1035000078CF8091E30087FD02C081E0B6CF83E0F1
:10351000B4CFCF93DF9300D000D0CDB7DEB70E94F9
:103520009516882341F00F900F900F900F90DF9128
:10353000CF910C9429080E94290869837A838B8390
:103540009C8380919A0490919B04A0919C04B091DB
:103550009D0429813A814B815C81280F391F4A1FC4
:103560005B1FCA01B9010F900F900F900F90DF9170
:10357000CF910895CF92DF92EF92FF92CF93DF9396
:1035800000D000D0CDB7DEB76B017C010E9495164C
:1035900081110EC00E942908C61AD70AE80AF90A42
:1035A000C0929A04D0929B04E0929C04F0929D04F5
:1035B0000F900F900F900F90DF91CF91FF90EF90B1
:1035C000DF90CF90089578941F921FB61F92112418
:1035D0008F939F93AF93BF9380919604909197049C
:1035E000A0919804B09199040196A11DB11D8093FA
:1035F000960490939704A0939804B0939904BF9174
:10360000AF919F918F911F901FBE1F9018952FB75C
:10361000F8948091960490919704A0919804B091A9
:1036200099042FBF0895FF920F931F93CF93DF93B9
:10363000C62FD42F122FFC0182818823A9F060931A
:1036400025070E94071B9093240780932307C770C8
:1036500081E001C0880FCA95EAF7DF91CF911F91F1
:103660000F91FF900C94040980912507681334C0D2
:1036700080912307909124070E941A0884369105AF
:1036800058F500E20D0FCD17A9F0C770FF24F39491
:103690008F2D01C0880FCA95EAF70E94F9080830FB
:1036A00048F48D2F877001C0FF0C8A95EAF78F2DA3
:1036B0000E940409812F0E9461120830A0F4D77083
:1036C00081E001C0880FDA95EAF7DF91CF911F9171
:1036D0000F91FF900C94F908C77081E001C0880F2A
:1036E000CA95EAF7F2CFDF91CF911F910F91FF902A
:1036F00008950E94951681110C94071B0E94891A47
:10370000CB0108956091FD06669570E04BE050E0B6
:1037100084E091E00E94DA32892B19F481E08093F1
:10372000B9040E94791B9093B3048093B2048091F2
:10373000BA0484608093BA040895CF93DF9300D0D5
:1037400000D0CDB7DEB79091FD0690FF47C09170D5
:1037500081113AC092609093FD068091BA04816015
:103760008093BA04662381F08091FD069091FE0655
:10377000A091FF06B091000789839A83AB83BC8335
:10378000BC01CD010E9423176091FD06669570E093
:103790004BE050E084E091E00E94DA32892BD9F0CE
:1037A0000E94AD0A81E08093B50420E040910007BB
:1037B0006091FF068091FE060F900F900F900F9082
:1037C000DF91CF910C9437178B3210F09465C3CFF3
:1037D000880F982BC0CF0E94821BE4CF0F900F90D0
:1037E0000F900F90DF91CF9108959091FD069695DF
:1037F0008FEF890F913009F48AE261E00C949D1BF0
:103800008091FD0686958F5F8B3208F081E061E044
:103810000C949D1B9091FD0690FF07C096959817FC
:1038200020F0961710F40C94001C61E00C949D1B82
:103830003F924F925F926F927F928F929F92AF9240
:10384000BF92CF92DF92EF92FF920F931F93CF938D
:10385000DF93CDB7DEB729970FB6F894DEBF0FBE62
:10386000CDBF8C01DC0113968D919C911497892B0F
:1038700039F08C9111969C9189238F3F09F05DC698
:1038800029960FB6F894DEBF0FBECDBFDF91CF9162
:103890001F910F91FF90EF90DF90CF90BF90AF906E
:1038A0009F908F907F906F905F904F903F90089582
:1038B0000E942D0EF82E682F89819A810E94C008DF
:1038C00069817A818F2D0E94A00C7C01F801828190
:1038D000882309F424C6970122513F452031310540
:1038E00008F0BFC58FEF93E00E94F432FEEEEF0EBA
:1038F00077E0872E72E0972E882391F180918D04D6
:10390000877009F4BDCFD80112968C91882309F4F1
:10391000B7CF82E029960FB6F894DEBF0FBECDBFB9
:10392000DF91CF911F910F91FF90EF90DF90CF909B
:10393000BF90AF909F908F907F906F905F904F90CF
:103940003F900C94B809811424E09206B9F2C401A6
:103950000E94F432811101C0EA943FEF831A930A66
:10396000E110F1CF80913C0190913D01A0913E0189
:10397000B0913F0189839A83AB83BC8344244394F1
:103980006AE0362E74014FEFE41AF40AC4010E9473
:10399000F43289831A82882309F4B0CF9FEF980FFD
:1039A000933018F58A83498252E0850E911CC70135
:1039B0000E94F4328B83882309F4A0CFCE010196B4
:1039C0007C01D7012C912223E9F2213009F04DC06E
:1039D00011969C91119712968C91913041F4B2E01E
:1039E000EB0EF11C0E94611209C04701E7CF923033
:1039F00049F4E2E0EE0EF11C0E94480A8FEFE81A4B
:103A0000F80ADFCF933031F4F2E0EF0EF11C0E94A0
:103A10000F0AF4CF943021F02FEFE21AF20AEECF22
:103A200032E0E30EF11C30E020E0B7016F5F7F4F22
:103A3000D70111964C918053990B8A30910550F023
:103A400021503109D8F2EFE9FFE03197F1F700C0DA
:103A50000000F6CF329EF001339EF00D11249C0140
:103A60002E0F3F1F842F7B01E0CFE22FF0E0E956BD
:103A7000F54F5490822F86958695869590E0FC01AF
:103A8000E957F54F64902770712C022E02C075948F
:103A900067940A94E2F731E063227724FC01E95845
:103AA000F54FA490B12C022E02C0B594A7940A94AD
:103AB000E2F741E0A422BB24FC01E959F54FC49090
:103AC000D12C02C0D594C7942A95E2F751E0C522C3
:103AD000DD246114710419F081EE0E94480AA114DA
:103AE000B10419F086EE0E94480A852D0E946112E9
:103AF000AB2819F086EE0E940F0A672819F081EEB4
:103B00000E940F0ACD2809F479CF8CE26BCF81E0B7
:103B10000E94D4090E945409F1CE81E00E948309D9
:103B2000F9CF82E0F5CF25EFE2162CE5F206E9F0B9
:103B300027E245EE66EE36EFE3163CE5F30689F044
:103B400044EFE4164CE5F40609F0B6C427E245EE6E
:103B500064EE07C027E245EE65EE03C026E241EEC3
:103B600060EEC8010E94131BC9CE26E241EE62EE50
:103B7000F8CFC7018A5F9C45099708F4AEC4B6E147
:103B8000EB16BCE5FB0609F0C3C1809190048A7A6C
:103B900091E009F490E090932C0469E2811165E3CF
:103BA00082ED91E00E9449080E946908A7CEF701C2
:103BB000E350FC4580919E048160E331F10590F46F
:103BC000E555FC4C0C943D32F701EA5FFC45E930C9
:103BD000F10508F094C4E254FC4C0C943D32809101
:103BE0009E04826080939E048AC480919E048460B7
:103BF000F9CF80919E048860F5CF80919F04816009
:103C000080939F047CC480919F048260F9CF80914F
:103C10009E048061E7CF80919E048062E3CF809113
:103C20009E048064DFCF0E94290F80919E048068EB
:103C3000D9CF80919E048C60D5CF80919F04836002
:103C4000DFCF80919E048E7FCDCF80919E048D7FAB
:103C5000C9CF80919E048B7FC5CF80919E04877FC2
:103C6000C1CF80919F048E7FCBCF80919F048D7FA9
:103C7000C7CF80919E048F7EB5CF80919E048F7DAB
:103C8000B1CF80919E048F7BADCF0E94290F809190
:103C90009E048F77A7CF80919E04837FA3CF8091CE
:103CA0009F048C7FADCF80919E0482FB992790F971
:103CB00021E0922790FB82F990FB83F993CF8091CA
:103CC0009F04982F909591708E7F892B90FB81F99E
:103CD00097CF0E94290F90919E04892F97FB87F917
:103CE000805880CF61E08EE090E00E94083307C4E6
:103CF00060E0F9CF85E33FC4809190048272B6ED15
:103D0000EB16BCE5FB0680F4E2ECEE16ECE5FE06F5
:103D100090F0F701E35CFC45E331F10508F075C074
:103D2000E953FC4C0C943D326AE285E2FDE5EF1666
:103D3000FF0609F4D5C0F8018281C080D1808823B4
:103D400009F41FC1C6010E942D0EF82E682FC6016E
:103D50000E94C008B6018F2D0E94AD0C7C01982EE8
:103D6000D8011296BC9012971596AC90A2945FE081
:103D7000A52280918D048770A1F0CB2CBB2091F0FF
:103D80008F2D807F803421F080E28E0D883048F0C6
:103D900082E00E94B80980918D048770CC24C3947E
:103DA0008111C12CDF2CD2944FE0D422B8E0DB1675
:103DB00009F4D9C1BD1508F425C1E3E0ED1508F4F7
:103DC000E5C08F2D807FFF2DFF70FF2E8824839408
:103DD0008D1408F02BC1803219F0F29490EFF92283
:103DE0008E2D992009F45DC141E0941609F47EC13D
:103DF000BB2009F488C1AA2009F47EC1F80185819D
:103E000080FF2BC18F70858377C18091FD0680FF75
:103E100026C08E7F8093FD068090FD069090FE0662
:103E2000A090FF06B09000078E829F82A886B98678
:103E3000C501B4010E9423170E94AD0A8091BA0403
:103E400081608093BA042FEF30E742E02150304088
:103E50004040E1F700C000000E947D124FCD81601C
:103E60008093FD0661E086950E949D1B47CD45EF3E
:103E70005BE160E07CE10E94A80A40CD40E05CE1AB
:103E800065EF7BE1F8CF41E158E16AE178E1F3CFFA
:103E90004AE158E161E178E1EECF49EF57E165E0B1
:103EA00078E1E9CF45E058E169EF77E1E4CF41EE11
:103EB00057E16DEE77E1DFCF4DEE57E161EE77E14F
:103EC000DACF43E258E166E478E1D5CF46E458E141
:103ED00063E278E1D0CF61E081E0C6CF65E082E0C7
:103EE0000E940A1C0BCD68E086E0FACF6EE089E004
:103EF000F7CF64E18FE0F4CF67E185E1F1CF61E0D6
:103F000088E1B2CF62E289E1EBCF61E083E2ACCF3E
:103F10005AE5E5165DE5F50681F168F4E1149CE5E6
:103F2000F906F1F0AEEDEA16ACE5FA0609F003CFBA
:103F30000E94B816E3CCBBE5EB16BDE5FB06F9F035
:103F4000ECE5EE16EDE5FE0609F0F5CE80919F0456
:103F500082FB882780F991E089270E94FF0EEBCE33
:103F60000E94290FFFEF24E33CE0F1502040304055
:103F7000E1F700C000000E94090881E0EECF80E078
:103F8000ECCFC6010E949608F82EE4CE34E0932EC2
:103F9000D91409F4CEC0ED2DE850FF0B349710F47E
:103FA0000E949C0ACC2009F46BCC80918D0480FD8A
:103FB00067CCD80112961C928595859585950E94AF
:103FC000D409C8010E94181C80918D04859585959F
:103FD000859529960FB6F894DEBF0FBECDBFDF9151
:103FE000CF911F910F91FF90EF90DF90CF90BF90F6
:103FF000AF909F908F907F906F905F904F903F9089
:104000000C94830929E0D21609F495C186E08D0D40
:104010008F70823008F0BFCF8E2D32EF93129CC18B
:104020008F2D8F71BB2009F4E4C193C1882319F04F
:10403000F29420EFF2228E2DBB20C9F0FF2069F010
:1040400090E29E0D983010F0E1100BC0809190042A
:10405000F82AF09290040E9469088E2D0E94480A66
:104060009ACF80918F04F82AF0928F04F4CF0E94A7
:104070000F0AFF2009F48FCFF09480E28E0D883074
:1040800010F0911008C080919004F822F0929004F2
:104090000E94690880CF80918F04F822F0928F04EB
:1040A000F7CFBB20B1F0909191048F2D892BA110F7
:1040B00003C00E9404096FCF51E0A512FACF2091EE
:1040C0009F0422FD68CF981709F465CF809391046F
:1040D00062CFA11006C00E9463088F2D0E94F908CC
:1040E0005ACF81E0A81609F456CFF5CFBB2031F0A6
:1040F00095E09A1508F44FCF8F2DDBCFA4E0AA15D9
:1041000008F449CFEACFAA2041F3893369F4FFEFDD
:1041100027EE33E0F15020403040E1F700C00000CE
:104120008E2D0E940F0A37CF8FE39CE90197F1F79C
:10413000F5CF8F2D86958695837061F0813009F0DB
:104140002ACFC7019370B11002C090E080E00E94B6
:10415000100921CFC7019370B11002C090E080E038
:104160000E94260918CF8F2D837009F06CC0B11002
:1041700012CF2E2D229526952770220F220F4E2D1D
:104180004F7050E070E060E0022E04C0440F551FF5
:10419000661F771F0A94D2F780E090E0DC01E4FE0E
:1041A0000FC08FE090E0A0E0B0E004C0880F991F3E
:1041B000AA1FBB1F2A95D2F780959095A095B09520
:1041C0002F2D269526952370223051F1233009F1A9
:1041D00040909204509093046090940470909504E1
:1041E000213099F0842B952BA62BB72B4C015D0128
:1041F00084209520A620B7208E829F82A886B9862B
:10420000C501B4010E94050AC6CE44295529662974
:1042100077294A015B01882A992AAA2ABB2AECCF6E
:10422000842B952BA62BB72B40919204509193048D
:1042300060919404709195044C015D01842695264B
:10424000A626B726D9CF8695BB2011F08F2D817079
:10425000882309F4A0CE2E2D229526952770220FB3
:10426000220F4E2D4F7050E070E060E0022E04C02F
:10427000440F551F661F771F0A94D2F780E090E025
:10428000DC01E4FE0FC08FE090E0A0E0B0E004C0ED
:10429000880F991FAA1FBB1F2A95D2F7809590956A
:1042A000A095B0952F2D269526952370223081F16B
:1042B000233009F140902607509027076090280787
:1042C00070902907213099F0842B952BA62BB72BC2
:1042D0009C01AD0124213521462157212E833F83A6
:1042E00048875987CA01B9010E944A0954CE442916
:1042F0005529662977294A015B01882A992AAA2A21
:10430000BB2A8E829F82A886B986C501B401ECCFF4
:10431000842B952BA62BB72B40912607509127076E
:1043200060912807709129074C015D01842695262C
:10433000A626B726E6CF2F2D2F70F22EBB2029F010
:10434000822F0E94D4098E2DB4CE8E2D0E94F908A2
:104350008F2D0E9483091FCE32EF391578F040EF80
:10436000941641F151EF951609F43EC0BB2009F4B3
:1043700064C0A11072CE8F2D8F713BC093EF991640
:10438000D9F1A4EF9A12F2CFBB2009F44BC02F2D24
:104390002F71F22E822F0E94D40980919F0482FDFA
:1043A00007C038E0F39EC0011124836080938D0420
:1043B0008F2D1FC0BB2091F0B4E0BA1508F4EBCDEF
:1043C0002F2D2F7181E090E0A0E0B0E004C0880FB5
:1043D000991FAA1FBB1F2A95D2F79ECF85E0982E62
:1043E0009A1408F4D8CDECCF8F2D8F71BB2009F42F
:1043F000B0CF0E94D409CFCD60E070E0CB01BB20EC
:1044000009F472CF8F2D8F7141E050E060E070E0D1
:104410004A015B0104C0880C991CAA1CBB1C8A952C
:10442000D2F76FCF81E00E94B80941E04A1508F049
:10443000B2CD82E00E94B809AECDAA2079F08933CE
:1044400041F45FEF87EE93E0515080409040E1F7F8
:1044500065CEAFE3BCE91197F1F760CE8F2D8F7178
:1044600078CFB0E1EB16BFE5FB0609F450CBE1E1F4
:10447000EE16EFE5FE0609F454CB93EFE9169CE542
:10448000F90609F46BCB08F04ECBB8EDEB16BCE5A2
:10449000FB0609F45FCB28E241E0E9EDEE16ECE51E
:1044A000FE0609F459CB26E241EE61EEF7EDEF1678
:1044B000FCE5FF0609F455CB882309F451C010929E
:1044C000250756E1E5165CE5F50608F052CB82E0DB
:1044D000E8168CE5F80608F41BCD0E946C0C90934E
:1044E0009F0480939E0496E1E9169CE5F90608F086
:1044F0006BCBA2E0EA16ACE5FA0608F058CB609167
:104500009E04F0909F0484E090E00E9408336F2D99
:1045100082E290E00E9408330E94290FEFC9F0E187
:10452000EF16FFE5FF0609F4F8CA21E1E2162FE5D0
:10453000F20609F0A2CF82E0F1CA85E0F801DE01BF
:10454000119601900D928A95E1F7D80112962C915F
:1045500089819A812111ACC90E949608F82EB0C9B0
:10456000E6E1EE16ECE5FE0609F0C6CB80912C04E0
:104570008111C0CB89E2E4EDF1E02AED31E09191C7
:10458000891303C0DF0111971C922E173F07B9F75B
:104590000BCB1F93CF93DF9380913204807FA9F4DC
:1045A00080912F04882389F080916404D091330492
:1045B00060912D0470912E04A0913004B0913104CB
:1045C000C62FC72316E0D81304C0DF91CF911F91E7
:1045D000089590E0109711F0CF3F19F4019687707D
:1045E000F2CF189F9001199F300D1124F901EC5C56
:1045F000FB4F41814713F2CF40814613EFCF4281F9
:104600004111ECCF438154814A1B5B0B4436510569
:1046100028F7809132048F70806180933204F90111
:10462000E75CFB4F80818F70806180838DE294E036
:104630000E94181CDF91CF911F910C94EF08AF924C
:10464000BF92CF92DF92EF92FF920F931F93CF937F
:10465000DF93CDB7DEB72B970FB6F894DEBF0FBE52
:10466000CDBF8C0185E0F801DE01179601900D9217
:104670008A95E1F7F80180819181E2802DE2A22EF6
:1046800024E0B22E609130047091310461157105FF
:1046900009F421C130912D0440912E04242F2323AD
:1046A0002F3F09F418C1C380D480F0902F04F60185
:1046B000E61BF70BFF2009F4DFC020913204522FD4
:1046C000507FE436F10508F0BAC0511177C0FE2CD6
:1046D000491321C038131FC0E1101DC02F70206185
:1046E00020933204C5010E94181C80913204F80105
:1046F00085838F2D2B960FB6F894DEBF0FBECDBFEE
:10470000DF91CF911F910F91FF90EF90DF90CF90AD
:10471000BF90AF900895CD2829F0282F29232F3F4F
:1047200009F0F7C020E0F22FF170DF2EE091640471
:104730004091330456E020FD1CC0EE20D1F2809160
:104740003204816080933204F12CD3CF2E2F30E0DD
:104750005E9FF0011124EC5CFB4F6181961306C053
:104760006081861303C06281E612E7CFF9013196BA
:10477000E770E413EBCF8F8398878F8198850E9431
:104780006F0E292F22952F70903260F0225F2F70CC
:10479000223078F49F7051F0F8019581907F31F4C8
:1047A000D12C0AC09F7011F08823D1F3805E88302D
:1047B000B8F3C8010E94181CFD2C9BCF491312C0EE
:1047C000381310C0E1100EC0F8012583C8010E9403
:1047D000181C86E0F801ADE2B4E001900D928A95D4
:1047E000E1F787CF8F8398878F8198850E947B0E12
:1047F000882309F1EE20F9F080913204803270F0C4
:1048000020912D0430912E043A8329831B82DD826E
:10481000CC828E83CE0101960E94181C86E0F8019E
:10482000ADE2B4E001900D928A95E1F70E94C922B1
:10483000FF24F3945ECFC8010E94181CF9CF5111D8
:104840000AC08DE294E00E94181C86E0F5011192E6
:104850008A95E9F779CF4913C5CF3813C3CFE11053
:10486000C1CFF8012583C8010E94181C86E0F5011C
:1048700011928A95E9F73DCFE436F105B8F7FE2CA1
:10488000EE20C9F2491316C0381314C080913204C7
:1048900080FD9FCF982F907F09F49BCFF8018583EF
:1048A000903F09F493CF982F907F905F8F70892B62
:1048B00085838CCF8F8398878F8198850E947B0E0C
:1048C0008111ACCF80913204816080933204C801A1
:1048D0000E94181C0ECFEE2009F4ADCF8F8398876D
:1048E0008F8198850E947B0EF82E882309F4A3CF30
:1048F00086E0F801ADE2B4E001900D928A95E1F70F
:1049000080912D0490912E040E946F0E0E94C92266
:10491000F0CE21E02E2507CF1F93CF93DF93CDB7A5
:10492000DEB767970FB6F894DEBF0FBECDBF342F4A
:104930004B8B252F5C8B6D8B7E8B8F8B8E899F890C
:10494000611110928F041A8A3D872E876F87998B89
:10495000888B86E0FE013D96DE01179601900D9250
:104960008A95E1F7CE0107960E941F23882389F0DC
:1049700016E0809164049091330489134FC06796C8
:104980000FB6F894DEBF0FBECDBFDF91CF911F9160
:10499000089586E0FE013796DE01119601900D9292
:1049A0008A95E1F74A855B854115510509F37F81B9
:1049B0006885862F87238F3FD9F22091330430E01A
:1049C000C901019687709927E0916404E8171906D8
:1049D00071F40E94290F109233041092640486E04F
:1049E000EDE2F4E0DF011D928A95E9F7C1CF79830A
:1049F0006A835D834C8396E0929FD001939FB00DB4
:104A00001124AC5CBB4FFE01319601900D929A953A
:104A1000E1F7809333040E94EF08AACF819FC00181
:104A200011248C5C9B4F0E941F23882309F4A7CF7D
:104A30008091640490E001968770992780936404C4
:104A400098CF8F929F92AF92BF92CF92DF92EF92C8
:104A5000FF920F931F93CF93DF9300D000D00F925C
:104A6000CDB7DEB789E9C82E81E0D82E90EAE92ECD
:104A700094E0F92E470100E0AA24A394B12CD601BA
:104A80008D916D01F894E82FE295EF70F0E021A18F
:104A90008F70A50102C0440F551F8A95E2F7CA0125
:104AA000922F982B91A392A18095892382A3789429
:104AB00000C0E3EAF1E030E020E010E04191A42FF3
:104AC000A295AF70B0E090968C9190E04F7002C0CC
:104AD000959587954A95E2F780FD49C08A2D022E6B
:104AE00001C0880F0A94EAF7182B2F5F3F4F26303A
:104AF000310521F7F601319780810E945C0B50EA65
:104B00005A95F1F7D4018C91181799F11C9381E013
:104B1000082BBFEF8B1A9B0AEEE9CE16E1E0DE060A
:104B200009F0ADCF1091AB04002329F181E080930F
:104B3000DC010E94071B9093DB018093DA018091D6
:104B4000DA019091DB010E941A080697C0F0E12F6C
:104B5000F0E0EE5FF84FD7018D917D018193B5EACA
:104B6000EB16B4E0FB06B9F71092DC0108C080E058
:104B7000BBCF80E0CDCF8091DC018111E0CF0E94DE
:104B80009516182F6091AB04882309F45BC01A8234
:104B90001982FE01339683E0DF011D928A95E9F7C1
:104BA000862F90E0BE016F5F7F4F8E5F984F0E940F
:104BB000D42E811127C08091DD018F5F8093DD01AC
:104BC0008630F0F1E091AA04F0E0EE5FF84F108239
:104BD0001182128213821482011101C0012F802FD1
:104BE0000F900F900F900F900F90DF91CF911F912A
:104BF0000F91FF90EF90DF90CF90BF90AF909F907C
:104C00008F9008951092DD01E091AA04F0E0BF01B9
:104C10006E5F784FDE0111969E012A5F3F4F10E0D4
:104C2000FB014191BF019D91491731F0AF01415006
:104C30005109FA019083182FA217B30789F7CCCF37
:104C400010E0CACF70E06E5F784F8091AA0490E0C8
:104C50008E5F984F0E94102FBFCFCDB7DEB7A597BC
:104C60000FB6F894DEBF0FBECDBF84B7877F84BF79
:104C70000FB6F894A89580916000886180936000D9
:104C8000109260000FBE80E890E00FB6F894809319
:104C90006100909361000FBE85B7806885BF85B7BE
:104CA000806885BF83E098E09093D1018093D00124
:104CB0000E947C060E9447078091E20084608093F6
:104CC000E2007894809119078823A1F01091E900FF
:104CD0001F709091EC00892F817090FD80E8182B57
:104CE0001092E9008091E80083FD0E94340F1F704C
:104CF0001093E90082E084BD93E095BD9AEF97BDE3
:104D000080936E0010929A0410929B0410929C045F
:104D100010929D040E9495168093170180911701AF
:104D2000882309F47DC01092120184E2809313015C
:104D30000E94951681110E94AB2E809117018091DF
:104D4000170195E0811190E09093AB0485E0891BF9
:104D50008093AA0486E60E945C0B87E90E945C0BA4
:104D600086EC0E945C0B84E30E945C0B85E30E944E
:104D70005C0B86EF0E945C0B87EF0E945C0B81E36B
:104D80000E945C0B83E30E945C0B82E30E945C0B3D
:104D900086E30E945C0BE0EAF4E08AEA94E0A2E099
:104DA000B7E011921D928E179F07D9F790E080E02F
:104DB0000E9402338A3E9E4F11F00E94B81682E094
:104DC00090E00E94F4328093F2060E946C0C909363
:104DD0009F0480939E040E9421258FE39CE9019704
:104DE000F1F700C000000E9421258091020780FF9A
:104DF0001BC06FEF83E290E00E9408336FEF84E204
:104E000090E00E9408336FEF85E290E00E94083343
:104E10006FEF7FEF90E080E00E9426330E94090848
:104E200084E28093120182CF83E090E00E94F4320A
:104E3000282F30E050E040E029A33AA34BA35CA325
:104E4000CA01B9010E94050A0E949516811102C08B
:104E50000E94B12E83E290E00E94F432813209F088
:104E600090C684E290E00E94F432873009F089C64F
:104E700085E290E00E94F432803109F082C60E94FF
:104E80009516882309F495C283E08093E50680FD9A
:104E900092C280E88093C2040E94442F6DE070E0CB
:104EA0008AE29BE00E94030C892B09F043C08091A9
:104EB000E50663E070E081FD80C287E29BE00E942E
:104EC000030C892BB9F56DE070E087E19BE00E944F
:104ED000030C892B79F50E94290869A37AA38BA377
:104EE0009CA3DC01CB01805A9541AF4FBF4F80930B
:104EF000E9069093EA06A093EB06B093EC06E5EE84
:104F0000F4E080E092E0DF019C011D9221503040EE
:104F1000E1F7F093C104E093C0048FEF9FEF90930B
:104F2000E8068093E70681E08093F0068093ED0623
:104F30001092E6068091AC0481113BC090E080E0C5
:104F40000E9402338A3E9E4F21F00E94B8160E94B2
:104F5000691888E090E00E94FC326093FD0670932F
:104F6000FE068093FF06909300078091BA04836049
:104F70008093BA046E7F71F40E94691888E090E013
:104F80000E94FC326093FD067093FE068093FF063C
:104F9000909300070E94B40A0E94AD0A8091FD061A
:104FA00080FF04C060E086950E949D1B81E0809395
:104FB000AC0480911701811106C084EF8093190120
:104FC00085EF8093180120911901A22FA295AF704F
:104FD000B0E091963C9191972F7081E090E0BC01F8
:104FE000022E01C0660F0A94EAF7462F409543232C
:104FF00091964C93919792963C919297362B9296DC
:105000003C93929740911801E42FE295EF70F0E005
:1050100031A14F70042E01C0880F0A94EAF7982F2F
:105020009095932391A392A1892B82A390968C9122
:1050300090E002C0959587952A95E2F7817020A1AE
:1050400030E002C0359527954A95E2F792E020FFBF
:1050500090E0892B8093BF049091170181E09827FD
:105060009093BE04891B8093AD0481E291E09093FC
:10507000C4048093C30482E097E06AE0662E680E61
:105080006DA28091190700E112E1853009F4CEC1CB
:105090000E942125E82E81110E942908E3EFF6E005
:1050A000A2E0B7E010E000E0B02EDD9081918D1518
:1050B00009F4CBC18D25C12CFF24F3949F2D982397
:1050C00009F4BEC10E949516882399F0C982BA825C
:1050D000DF2081E009F480E08B830E94071B816060
:1050E000782F9D838C8349815A816B818D810E94A9
:1050F0008C24F801ED50F94F8081F826F0828091E0
:10510000B904882309F464C08091B804E091FD06D5
:10511000E695E81BE093B404823009F0ADC1F0E0FD
:10512000E85BF44FE4910E2F10E05AE5C52E56E1EE
:10513000D52E8091B504882361F01092B5040E94A9
:10514000791B9093B3048093B2041092B704109229
:10515000B6040E94791B9C01E091B204F091B30463
:105160008E1B9F0B8F3F9F4798F58091B10488233A
:10517000B1F01092B1048091AF049091B004281B5B
:10518000390B2F3F3F4758F4805D9A489093B00405
:105190008093AF048091BA0488608093BA04A09091
:1051A000B604B090B704E00FF11FF093B304E0939E
:1051B000B20482EB94E0F60109958091B6049091D7
:1051C000B704892B29F4AB2819F081E08093B1044E
:1051D0008091BF04E82FEE0FEE0F90911901A92FD7
:1051E000A295AF70B0E090962C9130E09F7002C015
:1051F000359527959A95E2F72170332790911801FC
:10520000A92FA295AF70B0E090964C9150E09F709E
:1052100002C0559547959A95E2F7CA018170992782
:1052200040FF02C082E090E0822B8E2B8093BF046F
:105230001091BE048F70E82FF0E0E755FE4F80819B
:105240009091BD04890F8093BD04F12C82308CF0C5
:10525000E12FF0E0E554FB4F80818F5F80838AEA85
:10526000112319F0113019F48BE40E946112FF240C
:10527000F3948091BD048F3F8CF4E12FF0E0E5546E
:10528000FB4F80818150808389EA112319F011300E
:1052900019F48EE40E946112FF24F3948091BD04FE
:1052A000082E000C990B62E070E00E942932809376
:1052B000BD04F1100E940E098091F006882309F4C4
:1052C00040C08091EE069091EF060E941A08C297A6
:1052D00008F03EC12091E7063091E806211531051E
:1052E00009F0C3C18091ED06882359F10E94290875
:1052F00069A37AA38BA39CA38091E9069091EA0607
:10530000A091EB06B091EC0629A13AA14BA15CA1BA
:10531000281B390B4A0B5B0BDA01C9018F3F9F4FEA
:10532000AF4FBF4770F48091F006882351F062E0E0
:1053300070E088EC9BE00E94030C892B11F4109222
:10534000ED06E11001C0F1100E94330C0E949C0A8E
:105350009091F106891721F00E949C0A8093F10632
:1053600080911907843009F08CCE83E08093E900A6
:105370008091E80082FF85CE8091E80090E085FF73
:1053800006C00E949B06882309F43CC291E08091EC
:10539000E8008B778093E800992309F472CEE981C5
:1053A000E150E33108F0A7C2F0E0E652FC4C0C9467
:1053B0003D3280E06ACD80E26DCD84E29BE07FCD1E
:1053C00080911907843021F11092AE0428E130E079
:1053D00040E40FB6F894A895209360000FBE409368
:1053E000600083B7817F846083BF83B7816083BFA0
:1053F0007894889583B78E7F83BF0FB6F894A8956D
:1054000080916000886180936000109260000FBE00
:1054100080911807882351F00E942125E2E0F7E0EF
:105420008191811198C36DA06E12FACF80911907F6
:10543000853009F4C5CF0E94290F0E949C0A28CE0E
:10544000C394FF0C26E0C21239CE0F5F1F4F0A3003
:10545000110509F029CE8FEF89838A831B820E9470
:10546000071B8160782F9D838C8349815A816B81D2
:105470008D810E948C2443CE863059F4F0E0EB5BA2
:10548000F44FE4910E2F10E04EE6C42E46E1D42EE8
:1054900050CE893061F4E695F0E0EE5BF44FE49194
:1054A0000E2F10E037EAC32E33E1D32E42CE8F30D9
:1054B00061F4E695F0E0E15CF44FE4910E2F10E02A
:1054C00024EEC22E23E1D22E34CE853159F4F0E001
:1054D000E45CF44FE4910E2F10E099E7C92E94E1BB
:1054E000D92E27CE08E210E0A2E0CA2EA5E1DA2EDE
:1054F000883109F41ECE833249F4EAE3FBE00591DA
:10550000149180E0C82E86E1D82E13CE04EF11E06E
:10551000FAEACF2EF5E1DF2E843209F40ACE853285
:1055200081F48E2F63E00E94FB31E92FF0E0E95C0B
:10553000F44FE4910E2F10E0B8ECCB2EB2E1DB2E4D
:10554000F8CD00ED17E0E2E0CE2EE8E0DE2EF1CD62
:105550000E94071B9093EF068093EE0685EE94E081
:105560009093C1048093C0040E94951660E0882344
:1055700009F476C085E89BE00E9425192091260752
:1055800030912707409128075091290729A33AA372
:105590004BA35CA3CA01B9010E94B80B882341F058
:1055A000813081F160E086E79BE00E94251905C00B
:1055B00060E080E89BE00E946A1960E083E79BE07E
:1055C0000E94251960E08DE69BE00E946A19809197
:1055D000260790912707A0912807B091290789A352
:1055E0009AA3ABA3BCA3BC01CD010E94B80B82302F
:1055F00079F160F0833081F160E085E59BE00E9405
:105600006A1909C060E08BE79BE0D5CF60E087E6D0
:105610009BE00E94251960E082E59BE00E9425192D
:10562000E091C304F091C40480E0309721F0019030
:10563000F081E02D099581FB662760F98CE49BE001
:105640000E946A198091F006882309F44BCE42CE5D
:1056500060E081E69BE0DDCF60E08BE59BE0D9CFA9
:1056600088E89BE00E942519EDCF8091E60661E075
:1056700070E0811137CE082F10E02B01082E02C0F8
:10568000440C551C0A94E2F7A90144215521452BED
:1056900009F448C09091E50690FD46C08295880FB8
:1056A000807680931C01980136952795369527952D
:1056B00020931F01815E80931D011092200124E63A
:1056C00030E047E050E06AE171E088E70E94D52FC2
:1056D000892B09F007CEA80165E0440F551F6A9594
:1056E000E1F78091E50680FD2DC04B515B4F04E64C
:1056F00010E020E230E060E488E70E940230892B6D
:1057000009F0F0CD0E94330CC20180959095409035
:10571000E7065090E806482259225092E806409247
:10572000E706E0CD8F5FA7CF880F880F880F8093A3
:105730001C0110921F01895F80931D0183E08093FB
:105740002001BDCFE5ECF4E080E2DF011D928A95F7
:10575000E9F70DEB11E039EBC32E31E0D32E77E002
:1057600099249394D801ED918D01D6012D906D016E
:10577000240E352E311C91012B513B4F1901F0E0C5
:10578000EB53FB4F30E020E0772E721A892D022E6A
:1057900001C0880F0A94EAF7510160E0D5019D919C
:1057A0005D019823A72DA61BA7708A2E0A2E000C38
:1057B000BB0B692E01C0660C8A94EAF7862CB19562
:1057C000A195B109A770BB2701C09695AA95EAF7E4
:1057D000892A9081892A80826F5F6830F9F62F5F6D
:1057E0003F4F31962830310579F621EC31E0201712
:1057F000310709F0B7CF04E610E020E230E045ECD5
:1058000054E079CF00E210E0AE014F5F5F4F7A01C4
:105810008091E80085FD0AC08091E8008B77809335
:10582000E8000E949B06882399F3B0CD8091F10097
:10583000D7018D937D010150110951F7A7CD1A822F
:1058400089E08B8311C08A81823009F4B3C183302F
:1058500091F1813009F04FC00E9429080E94433223
:105860006B837C838D839E8380911907843009F03C
:1058700008CC1091E9001F709091EC00892F817085
:1058800090FD80E8182B82E08093E9008091E80089
:1058900080FF0DC050E040E060E270E0CE01019674
:1058A0000E94CC068091E8008E778093E8001F70FC
:1058B0001093E900E6CBDE0113968CE097E0E2E07E
:1058C000F7E021912D938E179F07D9F7CDCF8A81CD
:1058D000823089F42B813C814D815E8129A33AA3DA
:1058E0004BA35CA3CA01B9010E94433286E290E057
:1058F0000E940833B9CF8FEF8983B6CF4C816B817B
:105900008A810E947A0C9827892798279E838D8305
:10591000ABCFED80FE80FE24EF24FE248A810B8134
:105920003CE0039F8001112448E7849F000D111D76
:1059300011248C8190E0880F991F080F191F6F2D7B
:10594000C80187960E9408336E2DC8018896D0CF73
:105950000E94A80E89CF8A81823861F178F480385C
:10596000B1F0813809F080CF60E08B810E949D1BEF
:105970008B81811115C00E947E1676CF833809F085
:1059800073CF20E0409100076C818B8106C020E03E
:105990004B816091FF068091FE060E94371764CF0D
:1059A0008091FD0681608093FD0660E086950E94EF
:1059B0009D1B5ACF8B818093010756CF8A818238F5
:1059C000D9F058F4803899F0813809F04DCF8091A2
:1059D000FD0680FF0FC0869534CF833809F044CF91
:1059E0008091FE068B838091FF068C833DCF809152
:1059F000000727CF80E025CF8091010722CF80913B
:105A0000FD069091FE06A091FF06B091000789A3C4
:105A10009AA3ABA3BCA3BC01CD010E94231724CF42
:105A200080E18A8321CF81E08A8389EF0ACFEA80EF
:105A3000FB80FE24EF24FE248E010F5F1F4FCC80DD
:105A4000C00ED12ED11CC701895F9D4F0C151D05BD
:105A500009F40ACFA9EFEA16A1E0FA0650F40E9471
:105A6000F432F8018483BFEFEB1AFB0A0F5F1F4F7C
:105A7000EACFD80114961C92F6CF0A811B81102719
:105A800001271027FE0131966F01EC80E00EF12E08
:105A9000F11CC801895F9D4FE016F10609F4E4CEC0
:105AA000093FF1E01F0728F4D60114966C910E947B
:105AB0000833BFEFCB1ADB0A0F5F1F4FEACF0E94FC
:105AC000190FD2CE84E0ADCFEA80FB80FE24EF2414
:105AD000FE248E010F5F1F4FCC80C00ED12ED11C33
